:020000041000EA
:1000000000B5324B212058609868022188439860DF
:10001000D860186158612E4B002199600221596106
:100020000121F02299502B49196001219960352056
:1000300000F044F80222904214D00621196600F024
:1000400034F8196E01211966002018661A6600F04E
:100050002CF8196E196E196E052000F02FF8012189
:100060000842F9D1002199601B49196000215960AB
:100070001A491B48016001219960EB211966A021F2
:10008000196600F012F800219960164914480160C1
:100090000121996001BC002800D000471248134993
:1000A000086003C880F30888084703B5996A0420EC
:1000B0000142FBD001200142F8D103BD02B5186610
:1000C0001866FFF7F2FF186E186E02BD00000240BE
:1000D000000000180000070000035F00212200005C
:1000E000F4000018222000A00001001008ED00E03C
:1000F00000000000000000000000000074B24E7A12
:1001000000200420F7010010C3010010C5010010F9
:10011000C1010010C1010010C1010010C101001097
:10012000C1010010C1010010C1010010C701001081
:10013000C1010010C1010010C9010010CB01001065
:10014000CD010010CD010010CD010010CD01001037
:10015000CD010010CD010010CD010010CD01001027
:10016000CD010010CD010010CD010010CD01001017
:10017000CD010010CD010010CD010010CD01001007
:10018000CD010010CD010010CD010010CD010010F7
:10019000CD010010CD010010CD010010CD010010E7
:1001A000CD010010CD010010CD010010CD010010D7
:1001B000CD010010CD010010CD010010CD010010C7
:1001C00000BE00BE00BE00BE00BE00BE00F04BF888
:1001D000103800BEF2EB8871C03A0010E43A00100B
:1001E0003402001090A31AE700202149086006C8D5
:1001F00081F3088810471F48006800282FD10DA4FC
:100200000ECC002902D000F012F8F9E71A491B4A77
:10021000002000E001C19142FCD1194988471949E9
:1002200088471949884700BEFDE701C901C29A42C3
:10023000FBD37047E43A0010C00000207C07002088
:10024000A04100100000042000000420A041001084
:1002500000100420001004200000000070470B482C
:1002600001F00AFC0047EFF30580C0B270470000C0
:1002700008ED00E0000000D08007002020110020E1
:100280005D150010E50200104916001057560000D9
:1002900006005250ABB36053643900100600525050
:1002A000861C030274390010060052505422A29D8D
:1002B0007C39001005005250DE65F468A041001042
:1002C000F8B5C046044B10B5002B03D003490448D1
:1002D00000E000BF10BDC04600000000CC100020B0
:1002E0009838001010B503F0E5F903F00FF902F0AB
:1002F000BDFAFCE700487047D83800100048704746
:10030000CC38001070B5002822D0032829D8164B0D
:100310008000C558280003F001FAC0B2041C1F2851
:1003200014D8C026E4B2631CDBB25B00B6001E43E7
:10033000002808D000230D4AE95C01331180D9B2AE
:1003400002328C42F8D80A48068070BD1F24E8E7C4
:10035000C126054B02220548196801F0B7FCB6001A
:10036000F1E70020F1E7C04648020020C60A00205D
:10037000C40A0020094A10B594464024830063440F
:100380001A68C00062408034144080225201134336
:100390001C60034B9C466044416010BD04C001409A
:1003A000004001400123D0228340120693629361F2
:1003B000094A40219446830063441A68C0004A40B9
:1003C000803111408022520113431960034B9C4637
:1003D000052360444360704704C001400040014071
:1003E00070B5EFF3108C72B60D4D2B68002BFCD05E
:1003F000BFF35F8F0724CB08C618C05C01230C40F5
:10040000A3401C000440034207D118433070BFF3DF
:100410005F8F2C608CF3108870BD100001F016F90E
:100420002C0100D0F8B54746CE46884680B5EFF39C
:10043000108C72B6214D2C68002CFCD0BFF35F8F5E
:100440009A422CD8D4080727055D061901241740C5
:10045000BC402C421FD007210127894609E0D4085F
:10046000055D06194C4639001440A1400C00294294
:1004700011D001329342F2D201204042BFF35F8F8C
:1004800000220E4B1A608CF3108800280FDBC0BCD2
:10049000B946B046F8BD254310003570EEE7BFF30E
:1004A0005F8F00232B608CF310880120404243466D
:1004B000002BECD0089801F0C9F8C0462C0100D000
:1004C000024B18688007C00F7047C04600C0064046
:1004D0000021044B044ABFF35F8F02C39342FAD159
:1004E0007047C046000100D0800100D0044A107857
:1004F000431CDBB2172B00D9102313707047C04682
:100500005802002010B5064B064C82B00100009343
:1005100018221F232000FFF785FF02B010BDC04640
:10052000EC380010780C002001238340002904D00F
:10053000034A1360034A13607047034A1360FBE7E2
:1005400080E200E000E100E080E100E0024B1030DA
:100550009B688000C058704700ED00E070B50D004A
:10056000EFF3108672B60F4A1368002BFCD0BFF36E
:100570005F8F0D4B10309B6884001B590B4A9342D0
:1005800003D09D4201D001F079F8074B9B681D51C3
:10059000BFF35F8FBFF35F8F0022024B1A6086F3B9
:1005A000108870BD240100D000ED00E0CD010010E6
:1005B000F0B5DE4657464E464546E0B50C0083B0E2
:1005C000EFF3108A72B6604A1368002BFCD0BFF3B9
:1005D0005F8F1022914681444A465C4B96009B688F
:1005E0009D595B4B98469D4205D0A54216D0594F68
:1005F000EB1B2F2B14D9554B9B689D51BFF35F8F7D
:10060000BFF35F8F0022504B1A608AF3108803B04B
:10061000F0BCBB46B246A946A046F0BD1D00EAE7C5
:10062000012383409B465A464B4B1B681A4000925D
:100630005A464A4B1A60BFF35F8FFFF714FE031E42
:1006400001901DD12A0001339A439068844208D159
:1006500071E04B005B189B00FB189868A04245D0E6
:100660001A00062151560029F3DA84426AD0009B11
:10067000002B34D05A463A4B1A60374B1A60BAE70F
:10068000814530D12A0001239A4390688442E8D101
:10069000062151561300002940DB4A005018800003
:1006A0003C188046A0689860E079D87106202056F2
:1006B000987100282FDBA488F81A64052415444497
:1006C0000019E0240005400D2402204398805318AF
:1006D000244A9B001078FB1898711170C7E75A469E
:1006E0001E4B1A6087E700F0C9FFCBE70621595679
:1006F0000029D2DA0199002910D1FF3191711A49EC
:10070000918018490A789A71184ADB1B5B415A4359
:10071000120D0A70ABE7BD200002D7E7144A154955
:10072000D21A083A5002400D0143998012495208EA
:100730000A43DA809BE70621515613000029ACDA00
:100740004546DEE71300D5E7240100D000ED00E0C8
:10075000CD0100105C02002000E100E080E100E03B
:1007600080E200E01B11002000BDFFFFAAAA0000EC
:100770009602002000F0FFFF00F8FFFFF8B501250A
:1007800004000543FFF76FFDEFF3108C72B6214AAA
:100790001368002BFCD0BFF35F8F1F4E2100B7689A
:1007A0001E4A1F4B891A49414B431B0D59B2830006
:1007B000F858A8421CD00623D3568B421CD01223D3
:1007C000D3568B4222D01E23D3568B4220D02A23CD
:1007D000D35603208B4210D0124B1A781970A27195
:1007E000BFF35F8F00220B4B1A608CF31088F8BDAB
:1007F000B2680D48D050EFE7002043001B189B0063
:10080000D218FF239371094B9380E5E70120F4E7A9
:100810000220F2E7240100D000ED00E05C0200209D
:10082000AAAA00001B110020CD01001000BDFFFF8F
:10083000054B064A1360064A136053609360D36009
:1008400013615361936170478080808000E400E011
:1008500004E400E0024B9C4661448900016070475B
:100860004000003483680B4810B5844661446244FC
:100870001201090159189B185C684A6801209442CA
:1008800001D802D00020C0B210BD1A680B689A428D
:10089000F9D8F7E7FFFFFF0F0A4B1968EFF3108055
:1008A00072B60A68002AFCD0BFF35F8F1B68BFF3E3
:1008B0005F8F00221A6080F3108840BF0020002163
:1008C0007047C046F8100020F8B5574645464E46DA
:1008D000DE46E0B598460CAB1C780DAB1B780700E4
:1008E00091469A460568002C5AD1AC7B002C3BD02F
:1008F000660029683619033E89194B78AB73002BC3
:1009000000D1EB7300238B704B700B702B4BE218F4
:10091000BB6812019B184A461A6042465A600A9AFE
:100920009A600B9ADA6000238B704B700B706B7BB4
:100930009B46002B27D022006B685946A868984731
:100940005B465B005B442A68033B002812D0584694
:100950009619B070D118D35C002B00D073705B4631
:100960000C706B735C450FD0F0BCBB46B246A94619
:10097000A046F8BDD3189C709119925D002A00D052
:100980005A705B460B706C734A464346387D00F0E4
:10099000C5FA051E0AD10E9B002BE5D01D70E3E7BA
:1009A000660029683619033E8919AFE75346002BC4
:1009B000F1D12100386800F0FBFCECE7FFFFFF0FEE
:1009C000F0B5DE4657464E4645460023E0B58DB0AD
:1009D0000A936A4B8200D75800239B460B9000F085
:1009E0004DFA02000B007868EFF3108972B64D469D
:1009F00001680029FCD0A946BFF35F8F39684E7BA0
:100A00008C46002E2ED0BC685D49A24671180901A3
:100A10008A4451460868496804000D00A41A9D41A3
:100A2000002D5EDD02000B000B9800F077FA00232A
:100A300000229A46002308920993002398467B6877
:100A4000BFF35F8F5A461A6089F310884346002B24
:100A500012D10028C3D10DB0F0BCBB46B246A946A6
:100A6000A046F0BD002300229A4600230892099375
:100A7000002300209846E2E70A9B514618023043C3
:100A8000C047069007917A68EFF3108572B6544616
:100A90001368002BFCD0A246BFF35F8F0699079A1C
:100AA000002A3BDB114302D03B69002B52D13B684B
:100AB000D97B002905D01A68480041185218033A1A
:100AC0005670DE73FA68013E935D013393555B46C1
:100AD0003B617B68BFF35F8F5A461A6085F31088CD
:100AE0007DE7002D01D1002C9CD10021604600F053
:100AF000C7FB53465C681B680893099453469B6880
:100B000098465346DB689A46FB689B19013B1B7865
:100B10000A931B0203433B61002090E73B69002BD3
:100B2000C5D0089B099C5B1A9441089809991A0042
:100B30002300A14219D899421BD000210491013110
:100B40000391514601914146380002960091FFF70A
:100B5000BBFEBCE700F092F9069A079B12184B41C6
:100B6000994202D8E9D19042E7D901225242D317E3
:100B7000E3E708999142E0D9F7E7C046E410002086
:100B8000FFFFFF0FF8B557464E464546DE46E0B537
:100B90003E4D824689466A68EFF3108872B6136844
:100BA000002BFCD0BFF35F8F2E68B47B002C48D0A5
:100BB000670033683F19033FDB195A78B273002A84
:100BC00000D1F273324AA118AA680901521851469D
:100BD0001160494651602F4991600021D1609970A0
:100BE00059701970737B9B46002B41D022007368AB
:100BF0005946B06898475B465B005B443268033BEC
:100C000000282CD05846D719B870D118D35C002BC7
:100C100000D07B705B460C7073735C4529D0002656
:100C2000EB681B19013B19786B68BFF35F8F0022DB
:100C30001A6088F310880020002E0AD10802204391
:100C400007E06B68BFF35F8F1C6088F3108801209A
:100C50004042F0BCBB46B246A946A046F8BDD318F8
:100C60009C70D119D25D002A00D05A705B460B707F
:100C7000747352464B46287D00F050F9061ECED0C4
:100C80002100286800F094FBCAE7C046A4020020B7
:100C9000FFFFFF0F9908001010B5124C6368002B7E
:100CA00004D00A211048FFF7D5FD10BD23000F4ADC
:100CB0001021206800F0EAF9032000F0D3F80320A7
:100CC00000F09AF903200A4900F0E2F8FFF70EFC61
:100CD000084B9C46032360442375074B80006060EB
:100CE000DC60DEE7A4020020F81000206508001098
:100CF000C109001040000034E4100020F8B5CE46D1
:100D0000474680B505000C00FFF73CFF031E11DCD1
:100D1000244A0020536AA34203D3926A0130AA42B4
:100D200003D3C0BCB946B046F8BD1B1B5A1E934145
:100D3000D8B2F6E720BF1C4E7168EFF3108772B689
:100D40000A68002AFCD0BFF35F8FDAB29446FF2214
:100D500030681A40417B61450AD0016889465100DC
:100D600088464946904441440339897800290FD088
:100D7000F1681B0A8A18013A1278DBB29A420CD049
:100D80007368BFF35F8F00221A6087F31088BFE794
:100D900032699342F4D13161F2E7614600F008FB19
:100DA000EEE7C04600400540A4020020F0B5D6465C
:100DB0004F464646C0B5EFF305823F231340180067
:100DC0001038EFF3108C72B620490A68002AFCD064
:100DD000BFF35F8F0122170087401D4C1600A2460B
:100DE00067631C4C2578A0462C00C4402640224254
:100DF00015D05246566A184A8400A258964218D313
:100E00004246164BBD43E3581570BFF35F8F002277
:100E10000A608CF31088002B06D0984704E0BFF3DB
:100E20005F8F0E608CF31088E0BCBA46B146A846CE
:100E3000F0BD0B4A9B00904643441A681A60BFF30A
:100E40005F8F00230B608CF31088EDE7280100D042
:100E5000004005401C110020FC100020680C002000
:100E6000D03F054010B5034B01001800024AFFF7C0
:100E7000B7FA10BD1A11002008390010034B596A47
:100E80000A00986A596A8A42FAD1704700400540C0
:100E900070B504000D00EFF3108672B61A4A13689D
:100EA000002BFCD0BFF35F8F002D1BD02000FFF77D
:100EB0004DFB164981420AD02000FFF74FFB01216C
:100EC0002000FFF731FB0123A340114A1360114BAF
:100ED000A400E550BFF35F8F00220B4B1A6086F32E
:100EE000108870BD0121A1400A4BA200D5500A4BC9
:100EF00020001A788A4305491A70FFF759FB002130
:100F00002000FFF711FBE5E7280100D0AD0D001030
:100F100038600540680C00201C110020F0B54F46D9
:100F2000D6464646C0B507002E4C616A0D00A66A3B
:100F3000616AA942FAD18B4208D805D00120E0BCF1
:100F4000BA46B146A846F0BDB242F7D9EFF3108ACF
:100F500072B6254801680029FCD0BFF35F8F0125D8
:100F6000BD4022491F4C8846097889462943C9B2A9
:100F70008C46414660460870391D890065630A51F8
:100F80001B49B8004350216A0020294219D0616AE8
:100F90000800A66A616A8142FAD18B4219D801D150
:100FA000B24216D8CC450BD00E4B1F221D625D639A
:100FB00001233A4093400F4A136043464A461A7051
:100FC0000120BFF35F8F0022074B1A608AF310885D
:100FD000B5E70020BFF35F8F0022034B1A608AF34E
:100FE0001088ACE700400540280100D01C1100200B
:100FF000FC10002080E200E0EFF3108C72B60A498A
:101000000B68002BFCD0BFF35F8F01238340074A9E
:101010000748136202789A430270BFF35F8F002380
:101020000B608CF310887047280100D00040054009
:101030001C11002070B506000D00140000291DD001
:10104000002A12D073688068984762006B001219FA
:101050005B193168033A033B002808D08A18957061
:10106000C818CB5C002B0BD10470280070BDCB18C6
:101070009C7088188A5C002A05D105702000F5E76D
:1010800053700470F1E75A700570F7E710B583608C
:101090000023CCB243730133426004738373C4737F
:1010A0000068421C012C05D90133DBB213700332F6
:1010B0009C42F9D1FF230B405A00D318C0180023DB
:1010C0000338437010BDC04670B505000C1E07D034
:1010D000630001681B19033BCB185A78002A01D121
:1010E000200070BD500080180338091800204E7889
:1010F0004870210058702800FFF79CFF3100040061
:101100002800FFF7E1FF0600002C20D00028E7D0E0
:10111000320021006B68A86898477200630092193A
:101120001B192968033A033B002808D08A189470D9
:10113000C818CB5C002B00D053700670D0E7CB18DA
:101140009E7088188A5C002A00D05A70047034009F
:10115000C6E7C046F8B557464E464546DE464C0003
:10116000E0B5641817000268033C0500105D131910
:101170000E009C46002852D0430098461B18033BA3
:10118000D31859788A46002919D1002F0CD0EC7B4E
:10119000002C50D063001B19D318033B5E70EE7314
:1011A000434619180339531800229A7000236246E7
:1011B0005370F0BCBB46B246A946A046F8BD4900F4
:1011C000514403395218517888460021517089469C
:1011D0005970524601002800FFF72CFF4346824613
:1011E000002B07D05B0029684344033BCB185A7897
:1011F000002A2CD1514642462800FFF71BFF010070
:10120000002F1AD0A4462A68EF7B9444002F04D004
:101210007B00DB19D318033B5E70EE7310E0002FE8
:10122000C4D0E97B002910D04B005B18D318033BD6
:101230005E70EE73BAE7EE73B6E7A4462A6894448C
:101240000029B3D04B009846AAE7EE73AEE75000F2
:101250008018033809184878834648464870587003
:1012600041462800FFF7E6FE594680462800FFF772
:101270002BFF414602002800FFF7DCFE8046B9E75D
:10128000F8B557464E464546DE46E0B5467B026811
:101290007500AD19033D0F00515D531904009C46C4
:1012A000002953D04B0098465B18033BD31858785D
:1012B000824600281BD1002F0CD0E57B002D51D099
:1012C0006B005B19D318033B5E70E67343465818F6
:1012D0000338131800229A700023624630005370BE
:1012E0006173F0BCBB46B246A946A046F8BD4000BB
:1012F00050440338121850788046002050708146C0
:10130000587052462000FFF795FE43468246002B58
:1013100007D05B0021684344033BCB185A78002A6E
:101320002CD1514642462000FFF784FE0100002FD9
:101330001AD0AC462268E77B9444002F04D07B008F
:10134000DB19D318033B5E70E67310E0002FC3D0A7
:10135000C07B002810D043001B18D318033B5E70DD
:10136000E673B9E7E673B5E7AC4622689444002813
:10137000B2D043009846A9E7E673ADE75000801865
:1013800003380918487883464846487058704146E3
:101390002000FFF74FFE594680462000FFF794FEDD
:1013A000414602002000FFF745FE8046B9E7C046EF
:1013B00070B5050000292CD0437B8B422ED04C0009
:1013C00000686418033C0419A278002A21D0530055
:1013D0009B18033BC25CC6188A4202D11BE0002A5C
:1013E00008D053009B18033BC3185A788A42F6D1A1
:1013F00062785A70002301222800A3706370FFF7FF
:10140000A9FE697B02002800FFF714FE6873012023
:1014100000E0002070BD63783370EBE70122190013
:10142000FFF798FEF2E7C04610B50400FFF75EF83C
:1014300001002000FFF70EFAFF232371BFF35F8F37
:1014400010BDC04610B50400FFF750F801002000A1
:10145000FFF700FAFF23A380BFF35F8F10BDC046E4
:1014600010B504000120FFF74DF8034BC3189B0093
:101470002360BFF35F8F10BD40000034F8B5040057
:1014800006200D0000F05AFA002844D02A4B2B49C0
:10149000E21853425A418023DB039C469205284BB5
:1014A00062441A60274B1A6010008B689843FBD186
:1014B000214B254AE31859424B4180215B004900EA
:1014C0000620995200F03AFA2900C00000F006FB0D
:1014D000C30921D140270121260080256162A36232
:1014E00000232C36AD0135432B60062000F026FA90
:1014F0003900800000F0F2FA6022E36A53400E32B5
:101500001A4080235B0133431A60104B236310237E
:101510002B600D3BA364F8BD0D4A934203D9002311
:101520000C4F0D49D8E77F220240013252089F013B
:101530001900BF181300CFE70080FCBF00C00040B7
:1015400000E0004000F000400C110020010300000A
:10155000FEFF0000C0FF3F00FFFF00002B4B2C4AA6
:1015600070B51A602B4A2C4B2C491A6014008B68FA
:101570009C43FBD12A4D2B4EB54208D2013E761B2F
:10158000B60808CD984723000134B342F9D100F0E2
:101590007BF8254A204B1A60204A9368DB43DB0125
:1015A000DD09002BF9D14022204B214E214C9A67B6
:1015B0005A671A67DA66B44208D2236820000834F2
:1015C000002B1FD0FFF73EFFB442F6D31A4C1B4E40
:1015D000C022B168200000F079FBB460FEF778FF0C
:1015E000FFF726F9FFF758FB154C164EB44208D208
:1015F000013E361BB60808CC98472B0001359E42A9
:10160000F9D170BDFFF710FFD5E7C04600E00040FC
:10161000BFCDFBFEFE7F3C0000F0004000C000405C
:101620006407002074070020FFFFFF0100F0014065
:10163000640700205C0700200000002000ED00E0AF
:10164000740700207C07002000BEFDE70FB400B542
:10165000084883B000F0DCFB049B002B07D005A9F1
:101660001800019100F0E8F9034800F0D1FB00BE3A
:10167000FDE7C0462C3900103C39001010B5014878
:10168000FFF7E4FF4039001010B50C2082B000F0E5
:10169000AFF9FEF715FF002810D0864B8648864923
:1016A000864A186059609860D960186159619861DC
:1016B000D961186259625A6202B010BD804CA067AD
:1016C00000F09EF901227F4B1A60636C012BFCD164
:1016D00003227D4B1A607A4A936B012BFCD10133B4
:1016E00001217A4A7A480093043300F02DF905234A
:1016F000784A00930121784800F026F9774B5A6820
:10170000FF2A02D8802252005A6080226E4B694C18
:1017100012011A602169002905D0606900F0DEF924
:1017200001300138FDD1E0226C4B6D4819680A4048
:10173000026002221968514001320A40042102600D
:101740009A681142FCD08021664A0901116080220A
:1017500052005A60644B2361644B5968FF2900D8DA
:101760005A6003220121574B1A60604A936819425C
:10177000FCD0E023106803405D4803601268032337
:101780004A4002211340594A036093681942FCD031
:101790008021584B090119608021574B4900516045
:1017A0006361564B5A68FF2A00D859608022544B17
:1017B00012011A60E169002905D0606900F08EF914
:1017C00001300138FDD1E0234C4A11680B404D49EE
:1017D0000B6080214C4B090119608021364B490078
:1017E0005160E361494B5A68FF2A00D85960802252
:1017F000474B12011A60216A002905D0606900F088
:101800006DF901300138FDD1E023404A11680B40E9
:1018100040490B608021404B0901196080235B0027
:1018200053608022244BD20223623C4B5968914280
:1018300000D25A6080223A4B12011A60616A002974
:1018400005D0606900F04AF901300138FDD1E0238C
:10185000324A11680B4033490B608021324B090139
:1018600019608023DB025360144B63622F4B5A686C
:10187000FF2A02D8802252005A6080222C4B12018B
:101880001A60A169002905D0606900F027F90130CC
:101890000138FDD1E023254A11680B4025490B6032
:1018A0008021254B0901196080235B005360124B96
:1018B000A36101E780070020006CDC021BB7000079
:1018C000008000403CB0004030B00040002F68591C
:1018D00000800240008C864700C0024030800040FB
:1018E0003090004030A00040001BB7003C8000401A
:1018F0003C9000403CA00040405973075480004099
:1019000054B000405490004054A00040608000401B
:1019100060B000406090004060A000406C800040DB
:101920006CB000406C9000406CA0004048800040CB
:1019300048B000404890004048A00040014B800063
:10194000C058704780070020F8B504000C2017002D
:101950001D000E0000F0C2F843011B1A9901C91ABC
:10196000C90009188901380000F0B8F8069B29045D
:101970001B0319432368002B20DB194B194DE31877
:101980005A4253418022520194461B03164A634433
:101990001360164A13601F00AA689743FBD1C02347
:1019A000221D9B01134321222660A0601A60226839
:1019B000002AFCDA0822E1601A60F8BD3F232268A1
:1019C0001340B342D9D1A3681B051B0D8342D4D168
:1019D000EE22E368D20213408B42CED1EDE7C0463F
:1019E0000040FDBF00C0004000E0004000F00040AB
:1019F0008023024A9B000343D36270470080054066
:101A0000AA23064A1B0113602F230549D360054B07
:101A100019605368002BFCDA7047C0460040024052
:101A200000B0FA000060024010B5002800D110BDDF
:101A300000F09CF9FBE7C04610B5094A03001468A2
:101A400084B0002C08D0012200910648524203A91C
:101A5000A047012004B010BD00F0DAF90020F9E73A
:101A6000C4100020291A001001480421014B184716
:101A7000D0020020991A0010142310B50100188814
:101A800004331B88984710BD162310B50100188831
:101A900002331B88984710BDF8B54746CE4680B53F
:101AA0000F1E19D014239946043304000025012683
:101AB00098464B461888434621681B88984701C4BE
:101AC000431E9841013540420640AF42F1D13000FB
:101AD000C0BCB946B046F8BD0126F8E7114A936F7D
:101AE0009B0813D210665166002905D0FFE7FFE777
:101AF000FFE7516F106F704704B5002801D0002038
:101B0000C04301F0A9FE002104BDC046F0B5146E2B
:101B1000556E576F166FFFF7E5FF146655665767EA
:101B20001667F0BD000000D0132370B51D78012D9D
:101B300015D010DD1D48FFF7A7FF1D4C01008022C6
:101B4000200000F0C3F8022D2DD01A48FFF794FFB3
:101B5000194B186070BD194B154CA364F5E7174B72
:101B6000134C23606360A360E36023616361A3613E
:101B7000E36123626362A362E36223636363A3633B
:101B8000E36323646364A364E36423656365A3651B
:101B9000E36523666366A366E36623676367A367FB
:101BA000E367A364D1E7054BA364CEE75344000089
:101BB000A80800204C330000F4100020C11B0010C6
:101BC00007B5604601880A0A0230DF2AFAD1C9B295
:101BD000820804D3028840880004104300E00068B3
:101BE000014A5050039007BDA808002051434343C9
:101BF000C9188C46110C83B24B4310B4040C6143DA
:101C000092B280B2504362431C041B0C001910BCFA
:101C100059411304120CC01851416144704700002F
:101C2000132310B512481C78FFF72EFF0100012C7A
:101C30000AD003DD80220F4800F048F80E48FFF775
:101C40001BFF0E4B186010BD0A4C5422200000F000
:101C50003DF80B4B6365A365E36523666366A36686
:101C6000E36623676367A367E3672362E361E5E7EE
:101C700053460000A80900204C330000F410002057
:101C8000851C001007B5604601880A0A0230DF2A69
:101C9000FAD1C9B2820804D30288408800041043F4
:101CA00000E00068014A5050039007BDA8090020D9
:101CB00001480421014B1847E0020020991A001046
:101CC000014B1B6818470000E0020020014B5B68D5
:101CD00018470000E0020020F0B5C64600B5437C7E
:101CE00007000D001600002B38D0002A2EDD002141
:101CF0006A1E90466A5C037C4C1C00200A2A0CD0A9
:101D0000A64216D043461B5D21000D3B5A4253416B
:101D10006A5CDBB24C1C0A2AF2D1002BF0D1814262
:101D200017DC022110483B689847A64207D02000E4
:101D3000E8E7864203DD311A3B6828189847AD1959
:101D4000013D2B780D3B5A4253413B7480BCB84651
:101D5000F0BD091A3B6828189847E2E703681100AC
:101D600028009847F2E7C046AC390010F0B5CE46DF
:101D7000474680B583B06B46DE1CD02330701B060F
:101D80001C68204B804601A91800994601F06CFDA3
:101D9000071E20D01C4B1C68002C29D01B4D02E0D4
:101DA000E468002C0FD02368002BF9D02B68002B9F
:101DB00001D0A342F4D1200001223100FFF78CFFB3
:101DC000E468002CEFD1002F12D1404603B0C0BC14
:101DD000B946B046F0BD019B64B29C420CD0484667
:101DE00001F052FD084B1C68002C01D00127D5E7FB
:101DF000484601F029FDE8E7034B1C68002CCDD1D3
:101E0000E3E7C0465C070020BC0C0020C00C0020AB
:101E1000F0B5DE4645464E465746E0B583B006006F
:101E200001F07CFCD0231B061C68304B050001A987
:101E300018009B4601F018FD804600283DD02C4B31
:101E40001C689A46002C47D00A232A4F994602E084
:101E5000E468002C17D02368002BF9D03B68002BD6
:101E600001D0A342F4D120002A003100FFF734FF53
:101E70006B464A4620001A7101A90122FFF72CFF88
:101E8000E468002CE7D14346002B25D153461C685B
:101E9000002C06D06368002B0BD09847E468002C18
:101EA000F8D1280003B0F0BCBB46B246A946A04614
:101EB000F0BDE468002CEDD1F3E7019B64B29C42D5
:101EC0000ED0584601F0E0FC094B1C689A46002CE5
:101ED00002D001239846B7E7584601F0B5FCD5E794
:101EE000034B1C689A46002CAED1DAE75C07002051
:101EF000BC0C0020C00C00200A4A1368002B05D13E
:101F00000CE01A00DB680C32002B07D09842F8D1A5
:101F1000002902D1C3681360C16070470029FCD05A
:101F20001060FAE7BC0C0020F0B5002915DD0E4B5F
:101F30000D271A680D4B0E4CD3185D426B414518A6
:101F400020215B001E5F0478A64207D093691942E6
:101F5000FCD101301460A842F5D1F0BD936919425B
:101F6000FCD11760F2E7C046141100200080FCBFCE
:101F70000C11002030B50500002912DD00201024CE
:101F8000094B013D1A6893691C4208D101309369DD
:101F90001C42FCD113682B548142F4D130BD00287F
:101FA000FCD103204042F9E71411002070B51C0059
:101FB0000A4B15001860FFF761FA002D03DB0221C0
:101FC0002800FEF7D7F9002C03DB02212000FEF7E2
:101FD000D1F901210248FFF78FFF70BD14110020D5
:101FE000F0020020F0B5982357464546DE464E469F
:101FF000674AE0B5D75880253C006D0285B02C407B
:10200000883B2F420ED001222321624B00205A54DC
:102010006149DA7001F0F8F880222C005F4B9202DF
:102020001A655F4BFA0617D480235B011F424BD120
:102030008023DB011F4200D080E080231B021F426F
:1020400000D089E0BC4200D09DE005B0F0BCBB46AA
:10205000B246A946A046F0BD4D4A926D9046002A70
:102060002DD04E4A0024934601229146494A01262A
:10207000924642465146B8469A461700039104E0FC
:1020800001347600E4B2202C17D03742F8D05B46FA
:102090009E654B466508A3436D00ED18039B6D01DB
:1020A0009C466544280000F093FA00285FD1013473
:1020B000B743E4B27600002FE5D1474653461C00F3
:1020C00080235B011F42B3D01C430023304A002110
:1020D0001360314A33489360D36013615361936155
:1020E000D361136253629362D36213635363936346
:1020F000D363136453649364D36413655365936526
:10210000D365136653669366D36613675367936705
:10211000D367F0229200FFF7D3FD234B234A00211F
:102120001A600020012201F043F880221B4B1203A9
:102130001A658023DB011F4200D17EE701220421C2
:1021400000201C4300F0A2FF1022144B1A658023CC
:102150001B021F4200D175E70122052100201C430C
:1021600000F094FF80220D4B12011A656AE74B467E
:10217000AA8AA97800200093002301F06DF82800B6
:1021800000F062F993E7210009487940FFF75EFA11
:1021900000001150C40C00200000105000301150FD
:1021A00010000100040D0020C81000208001105014
:1021B000B039001010B501210520FEF7B5F910BDAA
:1021C00010B500220021024800F066F910BDC0469B
:1021D000E40C00208022024B5202DA647047C046B1
:1021E00000201150F0B5C64600B5060000F006F913
:1021F0000C232E4D0520AB672D49FEF7AFF9402388
:1022000098462C4C402200212000FFF759FD434600
:102210000127A38321210023274A6770A26013604E
:1022200063545F3161844146A18702396354234A74
:1022300023496360E260A1620B60E262214A63624B
:1022400020009360D360136153619361D361136283
:1022500053629362D362136353639363D3631364D0
:1022600053649364D364136553659365D3651366B0
:1022700053669366D366136753679367D367F022F9
:10228000002192004030FFF71BFD0F4B0F4A30003A
:102290001A6080239B052F64EB6490230C4AEA505C
:1022A000FFF798FF80BCB846F0BDC0460000115053
:1022B000E51F0010C40C00208400105000011050D5
:1022C0008000105000001050C810002080011050F5
:1022D00010D001000B785B0602D14B78052B00D0A3
:1022E00070478A78014B1A60FAE7C0460000115027
:1022F0000022154B10B59A60DA601A615A619A6132
:10230000DA611A625A629A62DA621A635A639A63EB
:10231000DA631A645A649A64DA641A655A659A65CB
:10232000DA651A665A669A66DA661A675A679A67AB
:10233000DA67F032920000210448FFF7C1FC044B39
:10234000044A1A6010BDC04600001050040D002061
:10235000C81000208001105010B57F200C002040D4
:102360004000E409110000191A00034B4001C01895
:1023700000F092F8012010BDC40C00207F2318004B
:1023800010B50840CA090B4203D107497D3B9B1A8F
:102390008B66400080188022044B40010021C01849
:1023A000120100F057F810BD00201150C40C00209D
:1023B0007F22130010B50B400A4200D110BDC9099D
:1023C0005B005B1804485B01C0180023002203492E
:1023D000C37000F03FF8F1E7C40C0020FFF7FFFFE7
:1023E0007F21C209034B9200014010B5D258024828
:1023F000FFF72CF904030020C439001080220D4B94
:10240000520410B51A600C4B0C491A6010008B680E
:102410009843FBD10A4C9C2200212000FFF750FC7E
:102420008022002152010748FFF74AFC0923636715
:1024300010BDC04600E0004000F0004000C0004079
:102440000000115000001050002303744382838267
:102450008361704710B58368002901D01C68214052
:10246000002A11D08024E400114322420CD01A68C3
:1024700022420BD1074A0A401A60FFE7FFE7FFE755
:10248000FFE7FFE7FFE78368196010BD8078FFF77B
:10249000A7FFC046FFFBFFFFF0B5C646002300B50F
:1024A000838201330374436804001F68838B816156
:1024B0001E1C934200D9161C8020B6B2921B93B208
:1024C000E278C000304315008446681E85416046AE
:1024D0006D03054301204240E27062786382002A66
:1024E00050D0002B2CD0802252011543344A126C5C
:1024F000920743D5A28B111C9A4200D9191C8AB2AB
:102500008021C90011439B1A9046E2789BB21600C5
:10251000701E864176030E4301214A40E2706278C4
:102520006382002A3AD0002B02D18023DB011E43B4
:10253000A023244A36043A40DB053543134309E01F
:10254000A023DB011D431E4B1B6C80231E4A9B05F1
:102550003A40134362681360A26813685B052BD48A
:102560001A4B2B401360FFE7FFE7FFE7FFE7FFE7AA
:10257000FFE7A3681D6080BCB846F0BDA278D20911
:10258000B8D1E2E73200E068FFF7A0FBA3699B192E
:10259000A36180231B021D43638AA2E7E0684246D1
:1025A000A1694030FFF792FBA3694344A3618023F4
:1025B0001B021E43638AB6E7A078FFF711FFC046EF
:1025C00000001150FFFFFFDFFFFFFFAFFFFBFFFF2A
:1025D000F0B5C64600B5067C0400002E00D1CDE063
:1025E00083681A681D684378AD05AD0D002B00D0D7
:1025F0006FE0838AEB189BB28382A18B62688D4265
:1026000006D2002363821368300080BCB846F0BD58
:102610001268520010D58D420ED1A26815686278FA
:10262000AD01AD0D002A00D08CE0EB18A3828D42E5
:1026300002D200236382E7E7638A002BE4D062685A
:102640001E1C17688B4200D90E1CE17880220D00F9
:10265000681E8541B6B2D20032436D031543012294
:102660009B1B514062789BB26382E170002A5AD072
:10267000002B3BD0802252011543454A126C920731
:1026800002D4A278D20936D0A28B111C9A4257D814
:102690008AB28021C90011439B1A9046E2789BB20E
:1026A0001600701E864176030E4301214A40E270F7
:1026B00062786382002A53D0002B02D18023DB0191
:1026C0001E43A023334A36043A40DB053543134307
:1026D00016E02A008069E168FFF7F8FAA38AA26988
:1026E000EB189BB25219A382A26186E7A023DB01FB
:1026F0001D43274B1B6C8023274A9B053A401343FD
:1027000062681360A26813685B053ED4234B2B40BC
:102710001360FFE7FFE7FFE7FFE7FFE7FFE7A368D7
:1027200000261D6070E73200E068A169FFF7CEFA6D
:10273000A3699B19A36180231B021D43638A97E74A
:10274000191CA5E7E1682A004031A069FFF7BEFA2D
:10275000A38AA18BEB18A382A3695B19A36166E727
:10276000E0684246A1694030FFF7B0FAA3694344EC
:10277000A36180231B021E43638A9DE77F23817828
:10278000074A08481940FEF761FFA078FFF728FEC6
:1027900000001150FFFFFFDFFFFFFFAFFFFBFFFF58
:1027A00004030020E4390010014B18787047C0463C
:1027B00019110020F0B5C646234B070098461B7838
:1027C00000B5002B03D0012080BCB846F0BD5322D9
:1027D00000211E48FFF774FA1D4C2000FEF724FE6E
:1027E0001C4B1C601C4C20001C3CFEF739FE2000DA
:1027F00000F03AFF194B1A4D1C601A4C002C04D003
:10280000280000E000BF184E30602B78002B0ED05F
:10281000002C16D00024144E630032681B19DB0014
:102820009B58984701342B78E4B2A342F4D838007F
:10283000FFF7D8FC3800FFF7BDFC012342461370B8
:10284000C1E72368FFDEC046191100204C0B0020B1
:10285000040B0020A00B002028030020A40B002064
:102860001811002000000000AC0A0020F0B5DE4680
:1028700057464E464546E0B58DB000F04DFE002867
:1028800000D145E1D24BD34E9946D34B4F469B46A0
:1028900009AC3568EA69EFF3108172B61368002B52
:1028A000FCD0BFF35F8F29622800210000F04EFEAC
:1028B000EA692B6ABFF35F8F0021116083F31088F0
:1028C000002800D124E16378082BE2D89B00FB5854
:1028D0009F466368002BDCD0A0689847D9E77F2229
:1028E0002179BD4B0A4055005B199846C8098044C0
:1028F000404601233030C5789D43C570C578033309
:102900009D43C570002A00D10FE14346DA7CB34BEA
:10291000002B00D1FCE0B24B1B78934200D8F7E0CB
:10292000B04B994653009B184A461568DB00ED18DA
:10293000002D00D1ECE0A368627920782D69A847CA
:10294000A7E70122A44D01202B78042113432B700B
:102950003323EA5C8243EA54EA5C8A43EA54013353
:10296000EA5C8243EA54EA5C00208A43EA54237812
:102970009A4600F03DFD6022237990461A40602A75
:102980000DD0402A00D1D6E0DB06DB0E012B00D1B2
:1029900036E1022B00D1EBE0002B00D1DAE0207809
:1029A0000021FFF7EBFC80212078FFF7E7FC70E7C0
:1029B0005B461B78DB0700D46BE78B4B002B00D109
:1029C00067E700E000BF64E7834A1378DB0700D4C1
:1029D0005FE7864B002B00D15BE710780007C00F44
:1029E00000E000BF55E77E4B19789846002900D1DA
:1029F0004FE77A4B002B00D136E37A4B00259946FE
:102A00004B461A686B005B19DB00D3185B69002B1F
:102A100000D184E020789847434601351978EDB21B
:102A20008D42EDD335E723789A466D4B98461B7857
:102A3000002B1BD0694B002B00D117E3694B0025FD
:102A400099463B004746B04656469A464B461A685A
:102A50006B005B19DB00D3185B68300098470135C9
:102A60003B78EDB2AB42F1D846465746532200219F
:102A70005846FFF725F91022FF215D48FFF720F99E
:102A800058462022FF211330FFF71AF900F0A6FC68
:102A9000584B002B00D1FCE600E000BFF9E623789C
:102AA0009A464F4B98461B78002B1BD04B4B002B64
:102AB00000D1DBE24B4B002599463B004746B04630
:102AC00056469A464B461A686B005B19DB00D318D2
:102AD0005B683000984701353B78EDB2AB42F1D8E6
:102AE00046465746532200215846FFF7E9F8102280
:102AF000FF213F48FFF7E4F858462022FF2113301A
:102B0000FFF7DEF800F06AFC5A4623799370C0E6BE
:102B10000DB0F0BCBB46B246A946A046F0BD01359B
:102B2000EDB28D4200D26BE7B3E6A36862792078FC
:102B300000F072FCADE63048002800D12FE700F02D
:102B400057FC002150460AAA00E000BF002800D030
:102B50009FE624E7202A00D119E1002A00D01EE7D1
:102B60006379092B00D91AE7244A9B00D3589F4662
:102B70007023217A0B4200D011E7C80984460F3335
:102B80000B405B00E8186044C07C80461348002876
:102B900070D01348007840456CD9124881464046B1
:102BA00040004044C0008046484600688146C14419
:102BB000002A63D04B46002B00D1F0E6D86800F025
:102BC00017FC4B4600215046DB680AAA9847BDE730
:102BD000183A0010A40B00204C0B0020000000004D
:102BE00018110020AC0A00200000000000000000C6
:102BF0004F0B002000000000000000003C3A0010D5
:102C0000237A0F2B00D9CAE6EB18DA78C54B002BD4
:102C100000D1C4E6C44B1B78934200D8BFE6C34B37
:102C2000994653009B184A461568DB00ED18002DA5
:102C300000D1B4E6E86800F0DBFB00215046EB6809
:102C40000AAA9847002800D023E6424623791A4270
:102C500000D0A4E663790A3B012B00D99FE600F07F
:102C6000C7FB63790A2B00D1DCE150460AA900F0CA
:102C700049FB0EE69146002A00D090E602206279D8
:102C800090468243012A00D1A4E04246002A00D0A7
:102C900085E6EB1863443033DB7808AA9B07DB0F2B
:102CA00002321380504602230AA900F041FBF0E5EE
:102CB000A37905931A006B789A4207D06B78002BA2
:102CC00000D039E1059B002B00D0C9E0059B5046A0
:102CD0000AA96B7000F016FBDBE56B7808AA0232DC
:102CE0001370504601230AA900F022FBD1E5E388C6
:102CF0001A0AD8B20F2A00D951E68D499300CB5851
:102D00009F460AA800F07AFB5046A179FFF758FACF
:102D100002222B7813432B70BBE5E388012B00D0F4
:102D20003DE608222B78504613430AA92B7000F089
:102D3000E9FAAEE5E388012B00D030E608222B78D3
:102D4000504693430AA92B7000F0DCFAA1E502205B
:102D5000297808AB9A1C8B068908DB0F01400B43CE
:102D60009FE7022A00D16FE1724B002B00D116E6DB
:102D700000E000BF0200002A00D110E6D37891786D
:102D80001B020B4350460AA900F0D2FADEE6237A72
:102D90000F2B00D903E6EB18DA78624B002B00D139
:102DA000FDE5614B1B78934200D8F8E55F4B9946EF
:102DB00053009B184A461568DB00ED18002D00D122
:102DC000EDE5E86800F014FB00215046EB680AAA24
:102DD0009847BBE6E288002A0BD14246EB186344D1
:102DE000012A2BD03022904698444346DB789B073B
:102DF00015D54B46002B00D14BE5D86800F0F8FA0A
:102E00004B460021DB680AAA50469847002000F094
:102E1000EFFA3423EB5CDB0700D53AE525E75046B3
:102E2000FFF7ACFA43460222DB7813434246D370E5
:102E3000D378012213434246D370DAE7303301934B
:102E4000DB789B07D5D55046FFF7B2FA0221019AED
:102E5000D3788B434146D370D3788B43D370C8E784
:102E6000581EC0B2FDF74AFA002800D197E5437812
:102E7000022B00D093E50121C3799A115B110A401E
:102E80000B4052011B0113432A782F318A4313430D
:102E90002B7009239946C37882781B021343C31809
:102EA0000693214B814403931E4B029707931F4BBC
:102EB0004F469846A9460196069BBB4200D8C7E0FC
:102EC0007B7801220B2B03D13B78FA78FF187B78B3
:102ED000042B23D1069BDB1B9BB20493039B1B7823
:102EE000002B1BD0079B002B00D1BBE00026150058
:102EF00043461A6873009B19DB00D318390050460B
:102F00009B68049A9847082802D9049B83424BD2B5
:102F1000039B01361B78F6B2B342E9D8019E029FAB
:102F20003DE5C0460000000018110020AC0A00205A
:102F3000643A0010000000005046FFF7D9F9AB7862
:102F400002934B4B98461B78002B1AD0494B002B11
:102F500000D18BE000230193474B994601994B46E2
:102F60008C461A684B006344DB00D3185B685046FC
:102F7000984701994B1CDAB243461B780192934261
:102F8000ECD8532200212800FEF79AFE1022FF21E0
:102F9000E81CFEF795FE28002022FF211330FEF7E3
:102FA0008FFE029BAB708DE62A000500002A0ED032
:102FB000BB789A18D2B204E00133DBB2CE709342F0
:102FC00005D04946C918C878FF28F5D0A6E73300D0
:102FD00039002A00294800F0A3FA039B7F191B78C7
:102FE000B34200D968E799E7254B002B00D1D6E41E
:102FF00000E000BF021E00D1D1E4504613780AA9B8
:1030000000F096F9A2E52189FDF77CF9021EF4D1C2
:10301000C5E4FDF76FF9122302000AA9504600F03B
:1030200087F993E508AB9A1C0023504613700AA950
:10303000013300F07DF92CE4124B002B00D1AEE4FB
:1030400000E000BF020099E6FDF758F9020092E6A1
:103050000D4B4D46019E029F002B00D136E600E04D
:1030600000BF33E69B68FFDE5B69FFDE5B68FFDE67
:103070001811002000000000AC0A00205F0B0020A7
:1030800000000000000000000000000030B587B024
:103090006B4605000C00981C0A220021FEF710FE6A
:1030A0006B461D705C70042C4FD009D8022C34D0B4
:1030B000032C19D13C4A13785B0758D407B030BDB4
:1030C000052C11D1384A1378DB07F7D50421137882
:1030D0008B431370354B1C68E269EFF3108172B6B5
:1030E0001368002B09D1FBE7304B1C68E269EFF352
:1030F000108172B61368002BFCD0BFF35F8F216282
:103100006946200000F074FAE269236ABFF35F8F1A
:103110000021116083F31088D0E70121224B1A7837
:103120008A431A701A780331A2431A7000225A7027
:103130001A788A431A701D4B1C68E269EFF31081FC
:1031400072B61368002BD8D1FBE7174A1378DB0758
:10315000B4D5042113780B431370144B1C68E26937
:10316000EFF3108172B61368002BC6D1FBE7042180
:103170000E20137868448B43137000210A22FEF757
:103180009FFD6B466A461D7305235373074B1C68EE
:10319000E269EFF3108172B61368002BFCD0BFF325
:1031A0005F8F216203A9ACE74C0B0020A40B002029
:1031B00070B584B06B4606000C000A220021981DF1
:1031C000FEF77EFD012301AD6B700E4B2C711C6868
:1031D0002E70E269EFF3108372B611680029FCD0FB
:1031E000BFF35F8F23622900200000F001FAE2693B
:1031F000236ABFF35F8F0021116083F3108804B04E
:1032000070BDC046A40B0020002330B585B001ADD1
:103210006B8028700633082202A86B70FEF756FDFB
:103220000C4B1C68E269EFF3108372B61168002939
:10323000FCD0BFF35F8F23622900200000F0D8F993
:10324000E269236ABFF35F8F0021116083F3108866
:1032500005B030BDA40B0020F0B5C64600B584B063
:103260001D006B4680460F00160000210622981DA7
:10327000FEF726FD434601AC2370072363700F4B16
:1032800065711D682771A660EA69EFF3108372B655
:1032900011680029FCD0BFF35F8F2B62210028004A
:1032A00000F0A6F9EA692B6ABFF35F8F0021116075
:1032B00083F3108804B080BCB846F0BDA40B002096
:1032C00070B57F240E4D0C4064002C19CE09A41952
:1032D0003034E578ED0701D5002070BD0126E57892
:1032E0003543E570FFF738F80028F6D10122E3787E
:1032F0009343E370E37803329343E370ECE7C04613
:103300004C0B002070B5094C0600082220000D006F
:10331000FEF7DCFC00238021E360A3602B78300003
:10332000994300220023FFF7CBFF70BDB00A0020B5
:10333000F8B5CE4647469046264E80B581460822CF
:1033400030000D001F00FEF7C1FC4346B3600023B0
:10335000F381EC79AB7924021C43231CBC4200D9D5
:103360003B1C9FB2B381002C0ED0002F18D04346D7
:10337000002B2CD03B1C402F1BD89FB233787F2BC7
:103380001CD80021144A0FE080212B780022994399
:1033900048460023FFF794FFC0BCB946B046F8BDCD
:1033A0007F230022317899433B004846FFF788FF8E
:1033B000F2E740239FB233787F2BE2D9064C3A00E4
:1033C00041462000FEF782FC80212200ECE700202D
:1033D000E2E7C046B00A00200C0B002010B5142212
:1033E00000210248FEF76CFC10BDC046B00A002068
:1033F000014B18617047C046B00A002010B5054C5B
:10340000010008222000FEF761FC0023A360E360B6
:1034100010BDC046B00A002070B5394C1D0023789D
:103420000600DA09C9098A4213D00020002D00D015
:1034300070BD344B002B03D021003000FEF74AFF53
:103440002369002B03D0220002213000984701207D
:10345000EEE7A0687F2B05D8002834D02A002A493F
:10346000FEF734FCE289A1685219E38892B2491947
:10347000E281A160934214D03F2D12D9A389981AFA
:10348000051C80B240282AD82078ADB27F2828D8E1
:1034900000219A4232D01C4A2B003000FFF710FF67
:1034A000C6E72369002B05D0220001213000984790
:1034B00000280AD08021237800229943300000237D
:1034C000FFF7FEFEB4E70020B2E700213000FEF770
:1034D00055FF30008021FEF751FF0120A8E740256D
:1034E000D2E79A4207D0084C2A002000FEF7EEFBF4
:1034F00080212200D0E780210022CDE70022CBE707
:10350000B00A0020D52200100C0B002010B50020BE
:10351000FFF750F910BDC04610B5FFF745F910BDD3
:10352000F0B5002A11D000247F274D78052D06D153
:103530003D008E7835406D00F6094519AB550D7884
:103540002C19A4B24919A242EFD8F0BD70B50400FD
:1035500080690E00002803D00121494200F08CF957
:10356000E089228A81B2851A93B2ADB2904202D22A
:103570006289AD1AADB2A288AA422BD2914222D260
:1035800060891018091A89B221829A4203D89B1ABD
:103590009BB29A42FBD9E288216853433000C91894
:1035A000FEF794FB228A0125531C9BB29A4215D93F
:1035B00062899B189BB2A0692382002801D000F089
:1035C00043F9280070BD891AA08989B2884209D3BD
:1035D00015002182002DDCD1238A9BB2A2899A4258
:1035E000E9D2E5E760891500091A89B22182F1E77D
:1035F00070B5040040690E00002803D00121494243
:1036000000F03AF9E289218A95B2531A9BB29142AD
:1036100002D962899B1A9BB2A2889A4220D02B00C1
:10362000954203D39B1A9BB29A42FBD9E288206849
:1036300053433100C018FEF749FB6B1C9BB29D42FF
:103640000AD962899B189BB26069E381002801D086
:1036500000F0FAF8012070BDA2899A42F4D2F0E796
:10366000207A0028DBD1F6E710B504004069002875
:1036700003D00121494200F0FFF8A069002803D0DF
:103680000121494200F0F8F80023E3812382A38856
:1036900060695B009BB25A1E5B42A2816381002875
:1036A00001D000F0D1F8A069002801D000F0CCF8DA
:1036B000012010BD10B51920FCF774FED023802224
:1036C000E1211B0692045A620448054B002218604F
:1036D00049020123FEF76AFC10BDC04600400340CA
:1036E0001011002010B5010000230022002000F07E
:1036F00043F810BD70B5074C074D641BA41005D0EE
:10370000013CA300EB589847002CF9D100F09AF83F
:1037100070BDC0467C0700207C07002010B58307E1
:103720000AD00300032102E001330B4205D01A78CE
:10373000002AF9D1181A10BD030019680C4A0D4C63
:103740008A188A4322420FD15968094A04338A18D9
:103750008A43224208D15968054A04338A188A43A9
:103760002242F1D000E001331A78002AFBD1E1E7D0
:10377000FFFEFEFE80808080F0B5D6464F4646466E
:103780009846264BC0B50600186891469A460F0029
:1037900000F054F8A422224B52001B689D58002DC3
:1037A00032D053466C6818681F2C32DC002E0CD1C6
:1037B000631C0234A4006B60675100F041F80020E4
:1037C000E0BCBA46B146A846F0BD49468822A300EF
:1037D000EB189950C42149008C46AC446146873AA5
:1037E000A240096891461143624611608421424615
:1037F00049005A50022EDBD129004A468D31FF3153
:103800000B6813430B60D3E71D004D35FF359D500A
:10381000C7E700F015F801204042D1E75807002023
:10382000BC3A0010034B10B5002B02D00248FFF742
:1038300059FF10BD00000000F53600107047C0466B
:103840007047C046F8B5C04601B40248844601BC82
:10385000604700BFE901002001B40248844601BC72
:10386000604700BF1102002001B40248844601BC39
:10387000604700BF0901002001B40248844601BC32
:10388000604700BF4901002001B40248844601BCE2
:08389000604700BFC1000020E9
:1038980053636B7A6F7220456E74657270726973C8
:1038A80065732C00322E346973682047487A205299
:1038B8006164617200000000303030303030000048
:1038C8000904000009022200010100A032000000E2
:1038D8001201BEBA00000040EFBE00000001010264
:1038E800030100004E6F207370696E6C6F636B7319
:1038F8002061726520617661696C61626C650000A7
:10390800486172647761726520616C61726D20250F
:103918006420616C726561647920636C61696D65AE
:10392800640000000A2A2A2A2050414E4943202ACE
:103938002A2A0A000A000000486172642061737331
:103948006572740052656C6561736500626F6F74AF
:10395800325F77323571303830000000312E342E26
:10396800300000007069636F0000000075736274B6
:10397800657374004E6F7620323220323032320056
:1039880006005250D3F075424C39001006005250D0
:10399800E182887F5439001006005250BBFF3CB6C4
:1039A8006C3900100D0A0000556E68616E646C6514
:1039B800642049525120307825780A006570202506
:1039C800642025732077617320616C726561647966
:1039D80020617661696C61626C65000043616E27E5
:1039E8007420636F6E74696E7565207866657220E1
:1039F8006F6E20696E616374697665206570202535
:103A080064202573000000006F757400696E000063
:103A1800922800109E2A0010262A0010E62900107D
:103A2800C8290010B029001042290010DE28001013
:103A3800D22800104E2D0010342D00109E290010A1
:103A48001A2D00109E290010022D0010EE2C0010D7
:103A58009E290010DA2C0010B02C00109E290010AE
:103A680012300010622D0010063000109E29001040
:103A78009E290010E82F0010622D00109E290010CA
:103A88009E2900109E2900109E2900109E290010D2
:103A98009E2900109E290010383000104C45440023
:103AA8000900525000000002A43A001008005250C9
:083AB8001200000030030020A1
:103AC000883900109439001090020010A0390010BD
:103AD0009C020010A8020010B4020010B43A0010BA
:043AE000A83A0010F0
:103AE400D02330B500251B0600245D5706E003688B
:103AF400BFF35F8F1C6081F3108820BF0268EFF36F
:103B0400108172B61368002BFCD0BFF35F8F03796A
:103B14007F2BECD905710368BFF35F8F00221A6015
:103B240081F3108830BDC04603000068EFF3108CA9
:103B340072B60268002AFCD0BFF35F8F04229A5643
:103B4400002A04DB002900D00A60002004E0D0220F
:103B54000120120612681A711B68BFF35F8F0022DE
:103B64001A608CF310887047F0B5C64600B582B071
:103B74000C00070000F070F8FA2200230090019175
:103B840020009200002100F057F8009A019B1400D5
:103B94001D0024184D41AB422FD82BD0D0231B0637
:103BA4001B68002698460BE03B68BFF35F8F1E60DE
:103BB40081F310882000290000F046F8002820D165
:103BC4003A68EFF3108172B61368002BFCD0BFF390
:103BD4005F8F3B797F2BE7D943463B713B68BFF34B
:103BE4005F8F00221A6081F31088012002B080BC2C
:103BF400B846F0BD009BA342D0D901246442E51726
:103C0400CCE70020F2E7C0460268EFF3108172B6F9
:103C14001368002BFCD0BFF35F8FFF23037103688D
:103C2400BFF35F8F00221A6081F3108840BF704792
:103C34007047C0460000000001B40248844601BC3D
:103C4400604700BFED1B001001B40248844601BC6C
:103C5400604700BFFD0C001001B40248844601BC5B
:103C6400604700BF7D0E0010C8380010983800105F
:103C7400AC380010C0380010100000000000000034
:103C8400000001000000000000000000000002002D
:103C9400000000000000000000000300000000001D
:103CA400000000000000FF000000000000B54868AC
:103CB40001318E460047704609380149884700BDE6
:103CC4007D070010BC02002000000000A8070020AF
:103CD4007C0C002000000000000000008C0C002080
:103CE40000000000000000001000000000000000C0
:103CF400503300004C3300005433000052330000B2
:103D04004D5300004D430000533400004334000081
:103D1400291F001000000000751F001000000000A3
:103D240000010000103A0010143A0010A80B002003
:103D340010000C000000E0FF1F0000000000000065
:103D4400000000000000000000000000000000006F
:103D5400000000001C06002084060020EC06002061
:103D6400000000000000000000000000000000004F
:103D7400000000000000000000000000000000003F
:103D8400000000000000000000000000000000002F
:103D9400000000000000000000000000000000001F
:103DA400000000000000000000000000000000000F
:103DB40000000000000000000000000000000000FF
:103DC40000000000000000000000000000000000EF
:103DD40000000000000000000000000000000000DF
:103DE40000000000000000000000000000000000CF
:103DF40000000000000000000100000000000000BE
:103E04000E33CDAB34126DE6ECDE05000B00000082
:103E1400000000000000000000000000000000009E
:103E2400000000000000000000000000000000008E
:103E3400000000000000000000000000000000007E
:103E4400000000000000000000000000000000006E
:104174000000000000000000A80A00200000000069
:1041840000000000B11C0010691A0010291B001067
:0C419400211C001025380010C50200108E
:04000005100001E9FD
:00000001FF
