:020000041000EA
:1000000000B5324B212058609868022188439860DF
:10001000D860186158612E4B002199600221596106
:100020000121F02299502B49196001219960352056
:1000300000F044F80222904214D00621196600F024
:1000400034F8196E01211966002018661A6600F04E
:100050002CF8196E196E196E052000F02FF8012189
:100060000842F9D1002199601B49196000215960AB
:100070001A491B48016001219960EB211966A021F2
:10008000196600F012F800219960164914480160C1
:100090000121996001BC002800D000471248134993
:1000A000086003C880F30888084703B5996A0420EC
:1000B0000142FBD001200142F8D103BD02B5186610
:1000C0001866FFF7F2FF186E186E02BD00000240BE
:1000D000000000180000070000035F00212200005C
:1000E000F4000018222000A00001001008ED00E03C
:1000F00000000000000000000000000074B24E7A12
:1001000000200420F7010010C3010010C5010010F9
:10011000C1010010C1010010C1010010C101001097
:10012000C1010010C1010010C1010010C701001081
:10013000C1010010C1010010C9010010CB01001065
:10014000CD010010CD010010CD010010CD01001037
:10015000CD010010CD010010CD010010CD01001027
:10016000CD010010CD010010CD010010CD01001017
:10017000CD010010CD010010CD010010CD01001007
:10018000CD010010CD010010CD010010CD010010F7
:10019000CD010010CD010010CD010010CD010010E7
:1001A000CD010010CD010010CD010010CD010010D7
:1001B000CD010010CD010010CD010010CD010010C7
:1001C00000BE00BE00BE00BE00BE00BE00F04BF888
:1001D000103800BEF2EB887174460010984600108B
:1001E0003402001090A31AE700202149086006C8D5
:1001F00081F3088810471F48006800282FD10DA4FC
:100200000ECC002902D000F012F8F9E71A491B4A77
:10021000002000E001C19142FCD1194988471949E9
:1002200088471949884700BEFDE701C901C29A42C3
:10023000FBD3704798460010C00000207C070020C8
:10024000544D00100000042000000420544D001004
:1002500000100420001004200000000070470B482C
:1002600001F086FD0047EFF30580C0B27047000043
:1002700008ED00E0000000D0800700206C12002094
:100280005518001041040010411900105756000085
:1002900006005250ABB360530045001006005250A8
:1002A000861C030210450010060052505422A29DE5
:1002B0001845001005005250DE65F468544D0010DA
:1002C000F8B5C046044B10B5002B03D003490448D1
:1002D00000E000BF10BDC046000000001812002062
:1002E00040430010D02380221B06920400200021EE
:1002F0005A61704710B5024801F006FF012010BD99
:100300004043001010B5024801F0FEFE002010BD71
:1003100058430010F8B50D0007000C48160001F016
:10032000F3FE6B79FF2B06D12B79DC00E41A09343C
:10033000A4B2B44202D900242000F8BD29783800C4
:10034000691803F073FA0028F6D1F4E77843001037
:1003500010B5064801F0D8FE192000F0D1F8D023DE
:1003600080221B0692045A625A6110BD8C43001011
:1003700010B5064801F0C8FE192000F0C1F8D023DE
:1003800080221B0692045A625A6110BDA0430010DD
:1003900003780133037001487047C04610440010D1
:1003A000F0B5234885B00C00150001F0ADFE002C1F
:1003B00004D0012C37D0012005B0F0BD1D4801F05C
:1003C000A3FED02380221B0692049A61EB78AA78C0
:1003D0001B0213435C01E41AA400E41800F03CFD86
:1003E000050000F0C7FEFA22E40006000F0000231B
:1003F00092002000E11701F075FD02000B00921938
:100400007B419F420BD808D00021029101910A49FB
:100410002800009100F024FDCDE79642F4D9012296
:100420005242D317F0E7054801F06EFEC3E7C0461D
:10043000B4430010D0430010E5020010F043001058
:1004400010B503F089FE03F02DFC02F017FCFCE769
:10045000004870477444001000487047544400102E
:1004600070B5002822D0032829D8164B8000C55823
:10047000280003F0A5FEC0B2041C1F2814D8C02613
:10048000E4B2631CDBB25B00B6001E43002808D058
:1004900000230D4AE95C01331180D9B202328C424B
:1004A000F8D80A48068070BD1F24E8E7C126054B2E
:1004B00002220548196801F085FDB600F1E7002029
:1004C000F1E7C04648020020C60A0020C40A002006
:1004D000094A10B594464024830063441A68C0005A
:1004E0006240803414408022520113431C60034B4D
:1004F0009C466044416010BD04C001400040014082
:100500000123D0228340120693629361094A40215D
:100510009446830063441A68C0004A408031114009
:100520008022520113431960034B9C46052360440B
:100530004360704704C001400040014070B5EFF3D4
:10054000108C72B60D4D2B68002BFCD0BFF35F8F63
:100550000724CB08C618C05C01230C40A3401C0034
:100560000440034207D118433070BFF35F8F2C6003
:100570008CF3108870BD100001F0E4F92C0100D05C
:10058000F8B54746CE46884680B5EFF3108C72B674
:10059000214D2C68002CFCD0BFF35F8F9A422CD8E1
:1005A000D4080727055D061901241740BC402C42DA
:1005B0001FD007210127894609E0D408055D0619E7
:1005C0004C4639001440A1400C00294211D00132A0
:1005D0009342F2D201204042BFF35F8F00220E4BC4
:1005E0001A608CF3108800280FDBC0BCB946B046F7
:1005F000F8BD254310003570EEE7BFF35F8F002391
:100600002B608CF31088012040424346002BECD035
:10061000089801F097F9C0462C0100D0024B1868E9
:100620008007C00F7047C04600C006400021044B41
:10063000044ABFF35F8F02C39342FAD17047C046AA
:10064000000100D0800100D0044A1078431CDBB2C6
:10065000172B00D9102313707047C0465802002092
:1006600010B5064B064C82B00100009318221F23E0
:100670002000FFF785FF02B010BDC046884400107F
:10068000C40D002001238340002904D0034A1360D5
:10069000034A13607047034A1360FBE780E200E0FF
:1006A00000E100E080E100E0024B10309B68800038
:1006B000C058704700ED00E070B50D00EFF31086F4
:1006C00072B60F4A1368002BFCD0BFF35F8F0D4B3F
:1006D00010309B6884001B590B4A934203D09D4203
:1006E00001D001F047F9074B9B681D51BFF35F8FA5
:1006F000BFF35F8F0022024B1A6086F3108870BD33
:10070000240100D000ED00E0CD010010F0B5DE4680
:1007100057464E464546E0B50C0083B0EFF3108ACD
:1007200072B6604A1368002BFCD0BFF35F8F1022B3
:10073000914681444A465C4B96009B689D595B4BB1
:1007400098469D4205D0A54216D0594FEB1B2F2B42
:1007500014D9554B9B689D51BFF35F8FBFF35F8FDB
:100760000022504B1A608AF3108803B0F0BCBB46DD
:10077000B246A946A046F0BD1D00EAE7012383402A
:100780009B465A464B4B1B681A4000925A464A4BAE
:100790001A60BFF35F8FFFF766FD031E01901DD146
:1007A0002A0001339A439068844208D171E04B00DB
:1007B0005B189B00FB189868A04245D01A000621E0
:1007C00051560029F3DA84426AD0009B002B34D0C2
:1007D0005A463A4B1A60374B1A60BAE7814530D116
:1007E0002A0001239A4390688442E8D10621515699
:1007F0001300002940DB4A00501880003C18804656
:10080000A0689860E079D871062020569871002879
:100810002FDBA488F81A6405241544440019E02449
:100820000005400D2402204398805318244A9B0061
:100830001078FB1898711170C7E75A461E4B1A6062
:1008400087E701F097F8CBE7062159560029D2DA5D
:100850000199002910D1FF3191711A4991801849ED
:100860000A789A71184ADB1B5B415A43120D0A70D1
:10087000ABE7BD200002D7E7144A1549D21A083A5F
:100880005002400D01439980124952080A43DA8010
:100890009BE70621515613000029ACDA4546DEE7F6
:1008A0001300D5E7240100D000ED00E0CD010010D9
:1008B0005C02002000E100E080E100E080E200E076
:1008C0006712002000BDFFFFAAAA000096020020C8
:1008D00000F0FFFF00F8FFFFF8B501250400054315
:1008E000FFF7C1FCEFF3108C72B6214A1368002B9E
:1008F000FCD0BFF35F8F1F4E2100B7681E4A1F4B0D
:10090000891A49414B431B0D59B28300F858A8423C
:100910001CD00623D3568B421CD01223D3568B42B5
:1009200022D01E23D3568B4220D02A23D356032015
:100930008B4210D0124B1A781970A271BFF35F8FDF
:1009400000220B4B1A608CF31088F8BDB2680D487A
:10095000D050EFE7002043001B189B00D218FF2364
:100960009371094B9380E5E70120F4E70220F2E759
:10097000240100D000ED00E05C020020AAAA0000E3
:1009800067120020CD01001000BDFFFF054B064A95
:100990001360064A136053609360D3601361536120
:1009A000936170478080808000E400E004E400E010
:1009B000024B9C466144890001607047400000344E
:1009C00083680B4810B584466144624412010901F2
:1009D00059189B185C684A680120944201D802D0DB
:1009E0000020C0B210BD1A680B689A42F9D8F7E728
:1009F000FFFFFF0F0A4B1968EFF3108072B60A6809
:100A0000002AFCD0BFF35F8F1B68BFF35F8F00220B
:100A10001A6080F3108840BF002000217047C04654
:100A200044120020F8B5574645464E46DE46E0B52E
:100A300098460CAB1C780DAB1B78070091469A4684
:100A40000568002C5AD1AC7B002C3BD0660029688D
:100A50003619033E89194B78AB73002B00D1EB7329
:100A600000238B704B700B702B4BE218BB6812018C
:100A70009B184A461A6042465A600A9A9A600B9A34
:100A8000DA6000238B704B700B706B7B9B46002BE6
:100A900027D022006B685946A86898475B465B00E0
:100AA0005B442A68033B002812D058469619B07060
:100AB000D118D35C002B00D073705B460C706B7345
:100AC0005C450FD0F0BCBB46B246A946A046F8BD77
:100AD000D3189C709119925D002A00D05A705B4621
:100AE0000B706C734A464346387D00F093FB051E3D
:100AF0000AD10E9B002BE5D01D70E3E76600296844
:100B00003619033E8919AFE75346002BF1D1210076
:100B1000386800F0C9FDECE7FFFFFF0FF0B5DE46D7
:100B200057464E4645460023E0B58DB00A936A4BC2
:100B30008200D75800239B460B9000F01BFB02005D
:100B40000B007868EFF3108972B64D4601680029F2
:100B5000FCD0A946BFF35F8F39684E7B8C46002ED0
:100B60002ED0BC685D49A246711809018A445146DD
:100B70000868496804000D00A41A9D41002D5EDD3F
:100B800002000B000B9800F045FB002300229A4660
:100B9000002308920993002398467B68BFF35F8F78
:100BA0005A461A6089F310884346002B12D1002858
:100BB000C3D10DB0F0BCBB46B246A946A046F0BDBD
:100BC000002300229A460023089209930023002064
:100BD0009846E2E70A9B514618023043C047069008
:100BE00007917A68EFF3108572B654461368002BAC
:100BF000FCD0A246BFF35F8F0699079A002A3BDB21
:100C0000114302D03B69002B52D13B68D97B0029AC
:100C100005D01A68480041185218033A5670DE731E
:100C2000FA68013E935D013393555B463B617B68F7
:100C3000BFF35F8F5A461A6085F310887DE7002D59
:100C400001D1002C9CD10021604600F095FC534658
:100C50005C681B680893099453469B689846534602
:100C6000DB689A46FB689B19013B1B780A931B02C1
:100C700003433B61002090E73B69002BC5D0089BF4
:100C8000099C5B1A9441089809991A002300A14213
:100C900019D899421BD0002104910131039151468A
:100CA00001914146380002960091FFF7BBFEBCE778
:100CB00000F060FA069A079B12184B41994202D83D
:100CC000E9D19042E7D901225242D317E3E70899CC
:100CD0009142E0D9F7E7C04630120020FFFFFF0F36
:100CE000F8B557464E464546DE46E0B53E4D82468F
:100CF00089466A68EFF3108872B61368002BFCD03F
:100D0000BFF35F8F2E68B47B002C48D06700336838
:100D10003F19033FDB195A78B273002A00D1F273EE
:100D2000324AA118AA680901521851461160494671
:100D300051602F4991600021D160997059701970EC
:100D4000737B9B46002B41D0220073685946B068E4
:100D500098475B465B005B443268033B00282CD01D
:100D60005846D719B870D118D35C002B00D07B70CF
:100D70005B460C7073735C4529D00026EB681B1929
:100D8000013B19786B68BFF35F8F00221A6088F30C
:100D900010880020002E0AD10802204307E06B686B
:100DA000BFF35F8F1C6088F3108801204042F0BCC5
:100DB000BB46B246A946A046F8BDD3189C70D119CF
:100DC000D25D002A00D05A705B460B707473524695
:100DD0004B46287D00F01EFA061ECED02100286862
:100DE00000F062FCCAE7C046A4020020FFFFFF0F2C
:100DF000F509001010B5124C6368002B04D00A21CD
:100E00001048FFF7D5FD10BD23000F4A10212068C0
:100E100000F0B8FA032000F0A1F9032000F068FA0E
:100E200003200A4900F0B0F9FFF70EFC084B9C467E
:100E3000032360442375074B80006060DC60DEE7BD
:100E4000A402002044120020C10900101D0B001054
:100E5000400000343012002000487047A4020020F7
:100E6000F0B557464E464546DE46E0B585B001939F
:100E700010AB1B780600039300239A469846009215
:100E80007268EFF3108B72B61368002BFCD0BFF3BF
:100E90005F8F3568AC7B002C6AD067002B683F19E8
:100EA000033FDB195A78AA73002A00D1EA73504A2B
:100EB000A118B26809015218009801991060516098
:100EC0000E9991600F99D16042469A705A701A70CB
:100ED0006B7B9946002B00D170E022006B6849467D
:100EE000A86898474B465B004B442A68033B0028A0
:100EF0005BD04846D719B870D118D35C002B00D00E
:100F00007B704B460C706B734C4558D0F3681B19C3
:100F1000013B18787368BFF35F8F42461A608BF30A
:100F200010885346002B08D10002204305B0F0BCC6
:100F3000BB46B246A946A046F0BD039B002B54D049
:100F40000E9B00200F99984703000B434DD00400DF
:100F50000D1E16DA0098019902000B00121BAB411E
:100F600099421CD838D000920193039B9A4687E798
:100F70007368BFF35F8F1C608BF3108801204042C1
:100F8000D4E700F0F7F802000B00A4185D410094CC
:100F90000195A94203D8E8D100998A42E5D90123F5
:100FA0005B42DC1700930194DFE7D3189C70D119E2
:100FB000D25D002A00D05A704B460B706C73307DA6
:100FC000009A019B00F026F9824600289ED021005D
:100FD000306800F069FB99E700999142C3D9012379
:100FE0005B42DC1700930194BFE700209EE7C046F8
:100FF000FFFFFF0FF8B5CE46474680B505000C0051
:10100000FFF76EFE031E11DC244A0020536AA34240
:1010100003D3926A0130AA4203D3C0BCB946B0469A
:10102000F8BD1B1B5A1E9341D8B2F6E720BF1C4ED9
:101030007168EFF3108772B60A68002AFCD0BFF31C
:101040005F8FDAB29446FF2230681A40417B6145D7
:101050000AD0016889465100884649469044414477
:101060000339897800290FD0F1681B0A8A18013AE0
:101070001278DBB29A420CD07368BFF35F8F002204
:101080001A6087F31088BFE732699342F4D1316167
:10109000F2E7614600F008FBEEE7C046004005407D
:1010A000A4020020F0B5D6464F464646C0B5EFF341
:1010B00005823F23134018001038EFF3108C72B6EE
:1010C00020490A68002AFCD0BFF35F8F0122170075
:1010D00087401D4C1600A24667631C4C2578A0462D
:1010E0002C00C4402640224215D05246566A184A67
:1010F0008400A258964218D34246164BBD43E3588B
:101100001570BFF35F8F00220A608CF31088002BEC
:1011100006D0984704E0BFF35F8F0E608CF3108811
:10112000E0BCBA46B146A846F0BD0B4A9B009046CB
:1011300043441A681A60BFF35F8F00230B608CF37F
:101140001088EDE7280100D000400540681200201B
:1011500048120020B40D0020D03F054010B5034BCD
:1011600001001800024AFFF7E9F910BD66120020DD
:10117000A4440010034B596A0A00986A596A8A42CB
:10118000FAD170470040054070B504000D00EFF340
:10119000108672B61A4A1368002BFCD0BFF35F8F1B
:1011A000002D1BD02000FFF77FFA164981420AD09C
:1011B0002000FFF781FA01212000FFF763FA0123E5
:1011C000A340114A1360114BA400E550BFF35F8F99
:1011D00000220B4B1A6086F3108870BD0121A140DC
:1011E0000A4BA200D5500A4B20001A788A430549C1
:1011F0001A70FFF78BFA00212000FFF743FAE5E7AA
:10120000280100D0A510001038600540B40D002062
:1012100068120020F0B54F46D6464646C0B50700D6
:101220002E4C616A0D00A66A616AA942FAD18B420E
:1012300008D805D00120E0BCBA46B146A846F0BDAA
:10124000B242F7D9EFF3108A72B625480168002937
:10125000FCD0BFF35F8F0125BD4022491F4C88465B
:10126000097889462943C9B28C46414660460870D0
:10127000391D890065630A511B49B8004350216A32
:101280000020294219D0616A0800A66A616A814279
:10129000FAD18B4219D801D1B24216D8CC450BD025
:1012A0000E4B1F221D625D6301233A4093400F4A9B
:1012B000136043464A461A700120BFF35F8F002235
:1012C000074B1A608AF31088B5E70020BFF35F8FE1
:1012D0000022034B1A608AF31088ACE700400540F7
:1012E000280100D0681200204812002080E200E0AF
:1012F000EFF3108C72B60A490B68002BFCD0BFF3D9
:101300005F8F01238340074A0748136202789A439C
:101310000270BFF35F8F00230B608CF3108870475F
:10132000280100D0004005406812002070B506007A
:101330000D00140000291DD0002A12D073688068A7
:10134000984762006B0012195B193168033A033B3E
:10135000002808D08A189570C818CB5C002B0BD1D8
:101360000470280070BDCB189C7088188A5C002A15
:1013700005D105702000F5E753700470F1E75A704D
:101380000570F7E710B583600023CCB243730133D7
:10139000426004738373C4730068421C012C05D936
:1013A0000133DBB2137003329C42F9D1FF230B40AF
:1013B0005A00D318C01800230338437010BDC0462C
:1013C00070B505000C1E07D0630001681B19033BB4
:1013D000CB185A78002A01D1200070BD5000801827
:1013E0000338091800204E784870210058702800F2
:1013F000FFF79CFF310004002800FFF7E1FF060023
:10140000002C20D00028E7D0320021006B68A868AB
:1014100098477200630092191B192968033A033B2D
:10142000002808D08A189470C818CB5C002B00D014
:1014300053700670D0E7CB189E7088188A5C002A1B
:1014400000D05A7004703400C6E7C046F8B557465D
:101450004E464546DE464C00E0B56418170002686B
:10146000033C0500105D13190E009C46002852D065
:10147000430098461B18033BD31859788A46002925
:1014800019D1002F0CD0EC7B002C50D063001B191D
:10149000D318033B5E70EE73434619180339531893
:1014A00000229A70002362465370F0BCBB46B246DD
:1014B000A946A046F8BD4900514403395218517855
:1014C0008846002151708946597052460100280013
:1014D000FFF72CFF43468246002B07D05B002968AC
:1014E0004344033BCB185A78002A2CD1514642463C
:1014F0002800FFF71BFF0100002F1AD0A4462A681E
:10150000EF7B9444002F04D07B00DB19D318033BFE
:101510005E70EE7310E0002FC4D0E97B002910D07C
:101520004B005B18D318033B5E70EE73BAE7EE73A3
:10153000B6E7A4462A6894440029B3D04B009846E5
:10154000AAE7EE73AEE75000801803380918487810
:10155000834648464870587041462800FFF7E6FE2B
:10156000594680462800FFF72BFF4146020028001D
:10157000FFF7DCFE8046B9E7F8B557464E464546CC
:10158000DE46E0B5467B02687500AD19033D0F00ED
:10159000515D531904009C46002953D04B009846D6
:1015A0005B18033BD3185878824600281BD1002FC4
:1015B0000CD0E57B002D51D06B005B19D318033B99
:1015C0005E70E673434658180338131800229A7069
:1015D00000236246300053706173F0BCBB46B246D4
:1015E000A946A046F8BD4000504403381218507870
:1015F0008046002050708146587052462000FFF708
:1016000095FE43468246002B07D05B002168434489
:10161000033BCB185A78002A2CD151464246200071
:10162000FFF784FE0100002F1AD0AC462268E77B4A
:101630009444002F04D07B00DB19D318033B5E7069
:10164000E67310E0002FC3D0C07B002810D0430009
:101650001B18D318033B5E70E673B9E7E673B5E772
:10166000AC46226894440028B2D043009846A9E7CB
:10167000E673ADE7500080180338091848788346B0
:1016800048464870587041462000FFF74FFE5946C3
:1016900080462000FFF794FE414602002000FFF73D
:1016A00045FE8046B9E7C04670B5050000292CD03C
:1016B000437B8B422ED04C0000686418033C041915
:1016C000A278002A21D053009B18033BC25CC618A5
:1016D0008A4202D11BE0002A08D053009B18033B2A
:1016E000C3185A788A42F6D162785A7000230122D0
:1016F0002800A3706370FFF7A9FE697B0200280031
:10170000FFF714FE6873012000E0002070BD6378CD
:101710003370EBE701221900FFF798FEF2E7C046AD
:1017200010B50400FEF790FF01002000FFF740F91C
:10173000FF232371BFF35F8F10BDC04610B50400B7
:10174000FEF782FF01002000FFF732F9FF23A3809C
:10175000BFF35F8F10BDC04610B504000120FEF737
:101760007FFF034BC3189B002360BFF35F8F10BD47
:1017700040000034F8B5040006200D0000F05AFACD
:10178000002844D02A4B2B49E21853425A41802367
:10179000DB039C469205284B62441A60274B1A6073
:1017A00010008B689843FBD1214B254AE31859421E
:1017B0004B4180215B0049000620995200F03AFA23
:1017C0002900C00000F006FBC30921D140270121F8
:1017D000260080256162A36200232C36AD013543CB
:1017E0002B60062000F026FA3900800000F0F2FAA3
:1017F0006022E36A53400E321A4080235B01334378
:101800001A60104B236310232B600D3BA364F8BDBB
:101810000D4A934203D900230C4F0D49D8E77F228C
:101820000240013252089F011900BF181300CFE790
:101830000080FCBF00C0004000E0004000F000401D
:101840005812002001030000FEFF0000C0FF3F000F
:10185000FFFF00002B4B2C4A70B51A602B4A2C4B13
:101860002C491A6014008B689C43FBD12A4D2B4EE7
:10187000B54208D2013E761BB60808CD9847230032
:101880000134B342F9D100F07BF8254A204B1A60AD
:10189000204A9368DB43DB01DD09002BF9D14022AC
:1018A000204B214E214C9A675A671A67DA66B44278
:1018B00008D2236820000834002B1FD0FFF73EFF1A
:1018C000B442F6D31A4C1B4EC022B168200000F07F
:1018D00079FBB460FEF7AAFEFFF758F8FFF78AFA23
:1018E000154C164EB44208D2013E361BB60808CC41
:1018F00098472B0001359E42F9D170BDFFF710FFCC
:10190000D5E7C04600E00040BFCDFBFEFE7F3C00B7
:1019100000F0004000C00040640700207407002071
:10192000FFFFFF0100F00140640700205C0700207A
:101930000000002000ED00E0740700207C0700207C
:1019400000BEFDE70FB400B5084883B000F0DCFB33
:10195000049B002B07D005A91800019100F0E8F9BD
:10196000034800F0D1FB00BEFDE7C046C8440010AC
:10197000D844001010B50148FFF7E4FFDC44001024
:1019800010B50C2082B000F0AFF9FEF747FE00283A
:1019900010D0864B86488649864A18605960986000
:1019A000D960186159619861D961186259625A62A7
:1019B00002B010BD804CA06700F09EF901227F4B61
:1019C0001A60636C012BFCD103227D4B1A607A4AAA
:1019D000936B012BFCD1013301217A4A7A480093A1
:1019E000043300F02DF90523784A0093012178484B
:1019F00000F026F9774B5A68FF2A02D8802252005D
:101A00005A6080226E4B694C12011A6021690029CC
:101A100005D0606900F0DEF901300138FDD1E02227
:101A20006C4B6D4819680A400260022219685140E7
:101A300001320A40042102609A681142FCD08021E0
:101A4000664A09011160802252005A60644B23618A
:101A5000644B5968FF2900D85A6003220121574B73
:101A60001A60604A93681942FCD0E0231068034072
:101A70005D480360126803234A4002211340594A1B
:101A8000036093681942FCD08021584B090119600A
:101A90008021574B490051606361564B5A68FF2AB9
:101AA00000D859608022544B12011A60E169002964
:101AB00005D0606900F08EF901300138FDD1E023D6
:101AC0004C4A11680B404D490B6080214C4B090179
:101AD00019608021364B49005160E361494B5A68D7
:101AE000FF2A00D859608022474B12011A60216AF0
:101AF000002905D0606900F06DF901300138FDD191
:101B0000E023404A11680B4040490B608021404B64
:101B10000901196080235B0053608022244BD202AC
:101B200023623C4B5968914200D25A6080223A4B62
:101B300012011A60616A002905D0606900F04AF953
:101B400001300138FDD1E023324A11680B4033499E
:101B50000B608021324B090119608023DB02536046
:101B6000144B63622F4B5A68FF2A02D8802252001E
:101B70005A6080222C4B12011A60A169002905D0FD
:101B8000606900F027F901300138FDD1E023254AD2
:101B900011680B4025490B608021254B0901196014
:101BA00080235B005360124BA36101E78007002094
:101BB000006CDC021BB70000008000403CB000401D
:101BC00030B00040002F685900800240008C8647EA
:101BD00000C00240308000403090004030A0004003
:101BE000001BB7003C8000403C9000403CA00040FF
:101BF000405973075480004054B000405490004056
:101C000054A000406080004060B000406090004000
:101C100060A000406C8000406CB000406C900040C0
:101C20006CA000404880004048B000404890004010
:101C300048A00040014B8000C0587047800700203A
:101C4000F8B504000C2017001D000E0000F0C2F8CB
:101C500043011B1A9901C91AC900091889013800E2
:101C600000F0B8F8069B29041B0319432368002BD6
:101C700020DB194B194DE3185A425341802252017F
:101C800094461B03164A63441360164A13601F00F0
:101C9000AA689743FBD1C023221D9B011343212235
:101CA0002660A0601A602268002AFCDA0822E1603F
:101CB0001A60F8BD3F2322681340B342D9D1A3680C
:101CC0001B051B0D8342D4D1EE22E368D2021340E0
:101CD0008B42CED1EDE7C0460040FDBF00C00040C2
:101CE00000E0004000F000408023024A9B000343D4
:101CF000D362704700800540AA23064A1B01136087
:101D00002F230549D360054B19605368002BFCDA7B
:101D10007047C0460040024000B0FA000060024038
:101D200010B5002800D110BD00F09CF9FBE7C046BB
:101D300010B5094A0300146884B0002C08D00122B1
:101D400000910648524203A9A047012004B010BDEB
:101D500000F0DAF90020F9E710120020211D001030
:101D600001480421014B1847D0020020911D0010AA
:101D7000142310B50100188804331B88984710BD40
:101D8000162310B50100188802331B88984710BD30
:101D9000F8B54746CE4680B50F1E19D01423994694
:101DA000043304000025012698464B461888434614
:101DB00021681B88984701C4431E98410135404261
:101DC0000640AF42F1D13000C0BCB946B046F8BDC4
:101DD0000126F8E7114A936F9B0813D210665166EB
:101DE000002905D0FFE7FFE7FFE7516F106F70474D
:101DF00004B5002801D00020C04302F081FA002180
:101E000004BDC046F0B5146E556E576F166FFFF7E0
:101E1000E5FF1466556657671667F0BD000000D0F1
:101E2000132370B51D78012D15D010DD1D48FFF767
:101E3000A7FF1D4C01008022200000F0C3F8022DF6
:101E40002DD01A48FFF794FF194B186070BD194B3D
:101E5000154CA364F5E7174B134C23606360A36034
:101E6000E36023616361A361E36123626362A36250
:101E7000E36223636363A363E36323646364A36430
:101E8000E36423656365A365E36523666366A36610
:101E9000E36623676367A367E367A364D1E7054B42
:101EA000A364CEE753440000A80800204C33000090
:101EB00040120020B91E001007B5604601880A0ACA
:101EC0000230DF2AFAD1C9B2820804D302884088DE
:101ED0000004104300E00068014A5050039007BD21
:101EE000A808002051434343C9188C46110C83B203
:101EF0004B4310B4040C614392B280B2504362432E
:101F00001C041B0C001910BC59411304120CC018FE
:101F10005141614470470000132310B512481C78EA
:101F2000FFF72EFF0100012C0AD003DD80220F48AD
:101F300000F048F80E48FFF71BFF0E4B186010BD6D
:101F40000A4C5422200000F03DF80B4B6365A3655A
:101F5000E36523666366A366E36623676367A36737
:101F6000E3672362E361E5E753460000A809002028
:101F70004C330000401200207D1F001007B5604662
:101F800001880A0A0230DF2AFAD1C9B2820804D3D2
:101F9000028840880004104300E00068014A505065
:101FA000039007BDA809002001480421014B1847F0
:101FB000E0020020911D0010014B1B681847000033
:101FC000E0020020014B5B6818470000E00200209F
:101FD000F0B5C64600B5437C07000D001600002B87
:101FE00038D0002A2EDD00216A1E90466A5C037CF0
:101FF0004C1C00200A2A0CD0A64216D043461B5D7A
:1020000021000D3B5A4253416A5CDBB24C1C0A2A48
:10201000F2D1002BF0D1814217DC022110483B683D
:102020009847A64207D02000E8E7864203DD311A30
:102030003B6828189847AD19013D2B780D3B5A4253
:1020400053413B7480BCB846F0BD091A3B68281860
:102050009847E2E70368110028009847F2E7C04676
:1020600048450010F0B5CE46474680B583B06B4674
:10207000DE1CD02330701B061C68204B804601A953
:102080001800994602F044F9071E20D01C4B1C682A
:10209000002C29D01B4D02E0E468002C0FD02368EF
:1020A000002BF9D02B68002B01D0A342F4D12000E3
:1020B00001223100FFF78CFFE468002CEFD1002FE4
:1020C00012D1404603B0C0BCB946B046F0BD019B3A
:1020D00064B29C420CD0484602F02AF9084B1C68B6
:1020E000002C01D00127D5E7484602F001F9E8E7C6
:1020F000034B1C68002CCDD1E3E7C0465C070020F1
:10210000080E00200C0E0020F0B5DE4645464E4677
:102110005746E0B583B0060002F052F8D0231B0604
:102120001C68304B050001A918009B4602F0F0F82E
:10213000804600283DD02C4B1C689A46002C47D086
:102140000A232A4F994602E0E468002C17D023683E
:10215000002BF9D03B68002B01D0A342F4D1200022
:102160002A003100FFF734FF6B464A4620001A71FF
:1021700001A90122FFF72CFFE468002CE7D14346B8
:10218000002B25D153461C68002C06D06368002B19
:102190000BD09847E468002CF8D1280003B0F0BCBD
:1021A000BB46B246A946A046F0BDE468002CEDD17E
:1021B000F3E7019B64B29C420ED0584602F0B8F897
:1021C000094B1C689A46002C02D001239846B7E7B9
:1021D000584602F08DF8D5E7034B1C689A46002C50
:1021E000AED1DAE75C070020080E00200C0E0020BC
:1021F0000A4A1368002B05D10CE01A00DB680C3288
:10220000002B07D09842F8D1002902D1C36813608F
:10221000C16070470029FCD01060FAE7080E00206A
:10222000F0B5002915DD0E4B0D271A680D4B0E4C2D
:10223000D3185D426B41451820215B001E5F047876
:10224000A64207D093691942FCD101301460A8421C
:10225000F5D1F0BD93691942FCD11760F2E7C04691
:10226000601200200080FCBF5812002030B505002D
:10227000002912DD00201024094B013D1A689369E2
:102280001C4208D1013093691C42FCD113682B54C5
:102290008142F4D130BD0028FCD103204042F9E74F
:1022A0006012002070B51C000A4B15001860FFF783
:1022B00061FA002D03DB02212800FEF709F9002C4A
:1022C00003DB02212000FEF703F901210248FFF79A
:1022D0008FFF70BD60120020F0020020F0B598233F
:1022E00057464546DE464E46674AE0B5D7588025F4
:1022F0003C006D0285B02C40883B2F420ED001225D
:102300002321624B00205A546149DA7001F0E8F948
:1023100080222C005F4B92021A655F4BFA0617D49D
:1023200080235B011F424BD18023DB011F4200D081
:1023300080E080231B021F4200D089E0BC4200D015
:102340009DE005B0F0BCBB46B246A946A046F0BD34
:102350004D4A926D9046002A2DD04E4A0024934655
:1023600001229146494A0126924642465146B846C4
:102370009A461700039104E001347600E4B2202C61
:1023800017D03742F8D05B469E654B466508A3439D
:102390006D00ED18039B6D019C466544280000F01C
:1023A0000BFB00285FD10134B743E4B27600002F65
:1023B000E5D1474653461C0080235B011F42B3D042
:1023C0001C430023304A00211360314A3348936094
:1023D000D360136153619361D3611362536293625B
:1023E000D362136353639363D3631364536493643B
:1023F000D364136553659365D3651366536693661B
:10240000D366136753679367D367F0229200FFF791
:10241000D3FD234B234A00211A600020012201F042
:1024200033F980221B4B12031A658023DB011F4204
:1024300000D17EE70122042100201C4301F092F824
:102440001022144B1A6580231B021F4200D175E72E
:102450000122052100201C4301F084F880220D4B4D
:1024600012011A656AE74B46AA8AA97800200093F0
:10247000002301F05DF9280000F0DAF993E721006C
:1024800009487940FFF75EFA00001150100E002055
:10249000000010500030115010000100500E0020BC
:1024A00014120020800110504C45001010B501217D
:1024B0000520FEF7E7F810BD10B500220021024804
:1024C00000F0DEF910BDC046300E00208022024B25
:1024D0005202DA647047C04600201150F0B5C6467B
:1024E00000B5060000F07EF90C232E4D0520AB67E9
:1024F0002D49FEF7E1F8402398462C4C402200215C
:102500002000FFF759FD43460127A3832121002323
:10251000274A6770A260136063545F31618441464B
:10252000A18702396354234A23496360E260A162B0
:102530000B60E262214A636220009360D360136102
:1025400053619361D361136253629362D3621363E5
:1025500053639363D363136453649364D3641365C5
:1025600053659365D365136653669366D3661367A5
:1025700053679367D367F022002192004030FFF742
:102580001BFD0F4B0F4A30001A6080239B052F6400
:10259000EB6490230C4AEA50FFF798FF80BCB846E2
:1025A000F0BDC04600001150DD220010100E0020CA
:1025B0008400105000011050800010500000105096
:1025C000141200208001105010D001000B785B061F
:1025D00002D14B78052B00D070478A78014B1A60E6
:1025E000FAE7C04600001150F0B5CE464746072333
:1025F00080B548798E780A790340C8787F218007B2
:1026000031401B02F40913434F00820F9446914658
:102610002A4D3A195201AA18967001266640567042
:10262000604600269383D6709077CA00012C29D08B
:1026300023488446880162448446AC4460468260F4
:102640001660002929D01F4AC900904641444160C4
:102650003F223F3393434A46022A00D15B001A4986
:102660003F190A687F01D3180B60184BED195340CE
:10267000EA604A469006184380236A681B060343B3
:10268000136010E012488446880162448446AC44DA
:1026900060468262166000290AD1002364012C1969
:1026A00063600C4BE3600120C0BCB946B046F0BD8E
:1026B000064AC900904641444162C9E7100E002015
:1026C000840010500400105014120020000010501C
:1026D00080001050000110500022154B10B59A6078
:1026E000DA601A615A619A61DA611A625A629A6210
:1026F000DA621A635A639A63DA631A645A649A64F0
:10270000DA641A655A659A65DA651A665A669A66CF
:10271000DA661A675A679A67DA67F0329200002120
:102720000448FFF749FC044B044A1A6010BDC04638
:1027300000001050500E0020141200208001105094
:1027400010B57F200C0020404000E4091100001962
:102750001A00034B4001C01800F092F8012010BD90
:10276000100E00207F23180010B50840CA090B4244
:1027700003D107497D3B9B1A8B664000801880225D
:10278000044B40010021C018120100F057F810BDA1
:1027900000201150100E00207F22130010B50B40B6
:1027A0000A4200D110BDC9095B005B1804485B01F7
:1027B000C018002300220349C37000F03FF8F1E77E
:1027C000100E0020FFF7FFFF7F21C209034B92008C
:1027D000014010B5D2580248FFF7B4F804030020B6
:1027E0006045001080220D4B520410B51A600C4B4E
:1027F0000C491A6010008B689843FBD10A4C9C224C
:1028000000212000FFF7D8FB802200215201074859
:10281000FFF7D2FB0923636710BDC04600E000400C
:1028200000F0004000C000400000115000001050B7
:1028300000230374438283828361704710B58368E9
:10284000002901D01C682140002A11D08024E40016
:10285000114322420CD01A6822420BD1074A0A4087
:102860001A60FFE7FFE7FFE7FFE7FFE7FFE783689F
:10287000196010BD8078FFF7A7FFC046FFFBFFFF80
:10288000F0B5C646002300B5838201330374436864
:1028900004001F68838B81611E1C934200D9161CA3
:1028A0008020B6B2921B93B2E278C000304315008C
:1028B0008446681E854160466D0305430120424001
:1028C000E27062786382002A50D0002B2CD08022E4
:1028D00052011543344A126C920743D5A28B111C46
:1028E0009A4200D9191C8AB28021C90011439B1A4F
:1028F0009046E2789BB21600701E864176030E4326
:1029000001214A40E27062786382002A3AD0002BAB
:1029100002D18023DB011E43A023244A36043A401F
:10292000DB053543134309E0A023DB011D431E4BA8
:102930001B6C80231E4A9B053A4013436268136058
:10294000A26813685B052BD41A4B2B401360FFE77A
:10295000FFE7FFE7FFE7FFE7FFE7A3681D6080BC35
:10296000B846F0BDA278D209B8D1E2E73200E068FB
:10297000FFF728FBA3699B19A36180231B021D435A
:10298000638AA2E7E0684246A1694030FFF71AFB7C
:10299000A3694344A36180231B021E43638AB6E7F5
:1029A000A078FFF711FFC04600001150FFFFFFDFC6
:1029B000FFFFFFAFFFFBFFFFF0B5C64600B5067C8B
:1029C0000400002E00D1CDE083681A681D684378AA
:1029D000AD05AD0D002B00D06FE0838AEB189BB2E4
:1029E0008382A18B62688D4206D2002363821368C2
:1029F000300080BCB846F0BD1268520010D58D4240
:102A00000ED1A26815686278AD01AD0D002A00D024
:102A10008CE0EB18A3828D4202D200236382E7E7A9
:102A2000638A002BE4D062681E1C17688B4200D9B1
:102A30000E1CE17880220D00681E8541B6B2D200DE
:102A400032436D03154301229B1B514062789BB2B8
:102A50006382E170002A5AD0002B3BD080225201C1
:102A60001543454A126C920702D4A278D20936D097
:102A7000A28B111C9A4257D88AB28021C9001143F7
:102A80009B1A9046E2789BB21600701E8641760330
:102A90000E4301214A40E27062786382002A53D0DB
:102AA000002B02D18023DB011E43A023334A3604CE
:102AB0003A40DB053543134316E02A008069E1689C
:102AC000FFF780FAA38AA269EB189BB25219A3827E
:102AD000A26186E7A023DB011D43274B1B6C8023EB
:102AE000274A9B053A40134362681360A268136843
:102AF0005B053ED4234B2B401360FFE7FFE7FFE766
:102B0000FFE7FFE7FFE7A36800261D6070E73200DC
:102B1000E068A169FFF756FAA3699B19A3618023B6
:102B20001B021D43638A97E7191CA5E7E1682A0089
:102B30004031A069FFF746FAA38AA18BEB18A38264
:102B4000A3695B19A36166E7E0684246A16940306A
:102B5000FFF738FAA3694344A36180231B021E4395
:102B6000638A9DE77F238178074A08481940FEF76A
:102B7000E9FEA078FFF728FE00001150FFFFFFDFFD
:102B8000FFFFFFAFFFFBFFFF0403002080450010A5
:102B9000014B18787047C04665120020F0B5C64654
:102BA0002D4F05003B7800B5002B03D0012080BCE1
:102BB000B846F0BD532200212848FFF7FDF9284C04
:102BC0002000FEF7ADFD274B1C60274C20001C3C6D
:102BD000FEF7C2FD200001F099FA244B244E1C6040
:102BE000244B9846002B2AD03000FDF7D1FB4246FB
:102BF000214B002418603378002A25D01E4A9046C5
:102C00009C420FD300F05EFF01343378E4B2A3425C
:102C1000F6D22800FFF762FC2800FFF747FC0123EB
:102C20003B70C3E743461A6863001B19DB009B58DF
:102C3000984701343378E4B29C42E1D9E9E742464F
:102C400000243378002AD9D100F03CFF3378002BE0
:102C5000DFD043461B68FFDE651200204C0B0020CE
:102C6000040B0020A00B002028030020A40B002050
:102C70006412002091030010AC0A0020F0B5DE467B
:102C800057464E464546E0B58FB001F011F8002892
:102C900000D14FE1C74BC84E9A46C84B55460193E9
:102CA000C74B0BAC9B460096009B1F68FA69EFF37D
:102CB000108172B61368002BFCD0BFF35F8F3962AE
:102CC0003800210001F096F8FA693B6ABFF35F8F84
:102CD0000021116083F31088002800D12AE1637875
:102CE000082BE1D89B00EB589F466368002BDBD094
:102CF000A0689847D8E77F222179B04B0A40570057
:102D0000C809DB191B18180001263030C778B743F3
:102D1000C770C7780336B743C770002A00D110E1E7
:102D2000A84ADB7C002A06D0A74A1278934200D238
:102D300095E19B1ADBB2002B00D0FBE0A34FA36808
:102D400062792078B847AFE79C4B012299461B78FF
:102D5000012013434A46137033234946D25C4E4642
:102D60008243CA54CA5C04218A43F2540133F25CA0
:102D70008243F254F25C00208A43F25423789A464C
:102D800000F012FE602223791A40602A0DD0402AFA
:102D900000D1F2E0DB06DB0E012B00D16AE1022B51
:102DA00000D121E1002B00D1F6E020780021FFF7CF
:102DB000D9FC80212078FFF7D5FC75E7019B1B78B3
:102DC000DB0700D470E7824B002B00D16CE700E0FA
:102DD00000BF69E7794A1378DB0700D464E77D4BCD
:102DE000002B00D160E710780007C00F00E000BFA3
:102DF0005AE7754F734A00213B78002A00D1B7E0AB
:102E00006F4A0E009146B34206D80136F6B29E4292
:102E100000D949E7B342F8D94A46116872009219BD
:102E2000D2008A185269002AEFD0207890470136E4
:102E30003B78F6B29E42E6D936E7624A237891465D
:102E4000002290464A46604F9A4646463B78002A02
:102E500000D185E09E425ED3504600F061FE01360F
:102E60003B78F6B2B342F5D2019E532200213000E6
:102E7000FFF7A2F81022FF215748FFF79DF8300016
:102E80002022FF211330FFF797F800F083FD534B0A
:102E9000002B00D108E700E000BF05E7494A23788E
:102EA0009146002290464A46474F9A463B78002A70
:102EB0004DD0434A464691469E421DD3504600F0AF
:102EC0002FFE01363B78F6B2B342F5D23B4F532288
:102ED00000213800FFF770F81022FF21F81CFFF7DF
:102EE0006BF838002022FF211330FFF765F800F05F
:102EF00051FD2379BB70D7E64B461A6873009B19C6
:102F0000DB00D3185B685046984701363B78F6B231
:102F1000B342D1D2DAE75B461A6873009B19DB0033
:102F2000D3185B685046984701363B78F6B2B342F7
:102F300090D299E70FB0F0BCBB46B246A946A04676
:102F4000F0BDA3686279207800F042FDACE65046FF
:102F500000F0E6FD3B78002BB8D04B465B68FFDE07
:102F6000504600F0DDFD3B78002B00D17CE7F4E714
:102F7000002B00D198E65369FFDE1948002800D1E4
:102F800013E700F011FD002150460CAAFDF708FAE6
:102F9000002800D088E608E7202A00D19FE0002A18
:102FA00000D002E76379092B00D9FEE60D4A9B00A9
:102FB000D3589F46B4450010A40B00204C0B0020B2
:102FC000AC0A00209103001064120020153C001090
:102FD00000000000000000004F0B00200000000077
:102FE000A1030010D84500107023217A0B4200D0B5
:102FF000DBE60F330B405B00CF09F018C019C07C33
:103000008446B748002808D0B6480078844500D2E6
:1030100086E06646301AC0B28446604600287BD1FE
:10302000002A00D009E1B04A9046607902260200E9
:103030000290B243012A00D103E1002800D0B4E697
:103040004B44DB193033DB780AAA9B07DB0F0232D3
:103050001380504602230CA900F046FC24E6A34A44
:1030600058001268C318DB00D318002B00D161E7A9
:103070001F6964E6237A0F2B00D996E6984A4B44E1
:10308000DB78002A05D0974A1278934263D39B1AC3
:10309000DBB2002B00D088E69548934F00F084FC0B
:1030A00000215046FB680CAA9847002800D0FBE599
:1030B0006022170023791F401A4200D075E6637919
:1030C0000A3B012B00D970E600F06EFC63790A2BF5
:1030D00000D1E3E050460CA900F0F0FBE4E5237AD0
:1030E0000F2B00D961E67E4A4B44DB78002A06D0DC
:1030F0007C4A1278934200D2C5E09B1ADBB2002BC7
:1031000000D052E67A48784F00F04EFC002150463D
:10311000FB680CAA98473BE79046002A85D044E616
:1031200066467600B046C4446646F600B4466F482C
:10313000006860448046002A00D176E7002800D16C
:1031400033E6C06800F030FC434600215046DB689F
:103150000CAA98471CE7654A59001768CB18DB0092
:10316000FF18002F00D120E6F86897E7E388012BCD
:1031700000D01AE60822337893434A461370A9E731
:10318000022031780AAB9A1C8B068908DB0F0140BC
:103190000B435DE7A279059273789A4207D0737862
:1031A000002B00D023E1059B002B00D0A6E04B466E
:1031B000059A50460CA95A7000F080FB74E57378AC
:1031C0000AAA02321370504601230CA900F08CFBAE
:1031D0006AE5E3881A0AD8B20F2A00D9E5E545491D
:1031E0009300CB589F460CA800F0E4FB5046A17911
:1031F000FFF762F9022233781343337054E5E38812
:10320000012B00D0D1E5082233781343B5E7022A19
:1032100000D17CE1384B002B00D1C6E500E000BFB7
:103220000200002A00D1C0E5D37891781B020B433D
:1032300050460CA900F058FBAAE62B4B2C489846A8
:1032400080E7E288002A07D14B44DF193037FB784A
:10325000012838D09B072AD54346002B00D123E50F
:10326000D86800F0A1FB43460CAADB680021504659
:103270009847002000F098FB34234A46D35CDB07D4
:1032800000D511E526E7194A59001768CB18DB006D
:10329000FF18002F00D188E5F86835E70AAB9A1CC3
:1032A000504601230CA9177000F01EFBFCE45046A9
:1032B000FFF758FA0222FB7813430122FB70FB78D8
:1032C0001343FB70C8E79B07C6D55046FFF764FA67
:1032D000FB78029AB343FB70FB789343FB70BBE728
:1032E000910300106412002040460010AC0A002038
:1032F000A10300100046001000000000581EC0B2DC
:10330000FDF7AAF8002800D14FE54378022B00D042
:103310004BE50121C3799A115B110A400B40520120
:103320001B0113434A4612782F318A4313434A46FE
:10333000137009239846C37882781B021343C3187D
:103340000693804B804402937F4B07937F4B0893F7
:103350007F4B09932B0045469846069BAB4200D80D
:10336000E7E001226B7804920B2B04D1EB780493F5
:103370002B78ED186B78042B37D1069B00265B1B4E
:103380009BB20393029B1A78079B002B0FD183E01B
:10339000039F29003A0050469847082801D98742E0
:1033A00010D2029B01361A78F6B2B2421DD3089BA6
:1033B000B242EDD9099B1A6873009B19DB00D31840
:1033C0009B68E5E7049B0700002B57D0AB78049A75
:1033D0009A18D2B204E00133DBB2CE7093424DD0E2
:1033E0004946C918C878FF28F5D04546DDE450465F
:1033F000FFF772F9B378534F534A02931600002136
:103400003B78002A31D02A000D009046504E9D4254
:103410001DD3504600F084FB01353B78EDB2AB4242
:10342000F5D24546532200214846FEF7C5FD4B46DE
:103430001022D81CFF21FEF7BFFD48462022FF21A5
:103440001330FEF7B9FD4B46029A9A70ABE66B005B
:1034500032685B19DB00D3185B685046984701352A
:103460003B78EDB29D42D2D9DBE7504600F058FBE5
:103470003B78002BD6D033005B68FFDE3300290099
:103480003A00344800F058FC029BED191B78B34217
:1034900000D362E7454688E429005046039A00F0CD
:1034A0004DFB01000700082802D9039A824232D25C
:1034B000029B45461B78002B00D176E400239B68D5
:1034C000FFDE254B002B00D16FE400E000BF0200BF
:1034D000AAE6224B002B00D167E400E000BF021EE9
:1034E00000D162E4504613780CA900F0FDF94FE5D5
:1034F0002189FCF7B5FF021EF4D156E4FCF7A8FFC2
:10350000122302000CA9504600F0EEF940E5FCF74A
:10351000A3FF020085E6049B002B00D056E70E00B7
:103520000A000C482900079B00F006FCB4466544DD
:1035300013E70B4B4546002B00D138E600E000BFF7
:1035400035E6C04664120020910300103D3B001098
:10355000AC0A00205F0B002000000000000000000B
:103560000000000030B587B06B4605000C00981CC9
:103570000A220021FEF720FD6B461D705C70042CB2
:103580004FD009D8022C34D0032C19D13C4A1378DF
:103590005B0758D407B030BD052C11D1384A1378D9
:1035A000DB07F7D5042113788B431370354B1C6868
:1035B000E269EFF3108172B61368002B09D1FBE7C3
:1035C000304B1C68E269EFF3108172B61368002B70
:1035D000FCD0BFF35F8F21626946200000F0DCFC65
:1035E000E269236ABFF35F8F0021116083F31088C3
:1035F000D0E70121224B1A788A431A701A780331D6
:10360000A2431A7000225A701A788A431A701D4B0E
:103610001C68E269EFF3108172B61368002BD8D1F1
:10362000FBE7174A1378DB07B4D5042113780B4363
:103630001370144B1C68E269EFF3108172B61368C3
:10364000002BC6D1FBE704210E20137868448B437E
:10365000137000210A22FEF7AFFC6B466A461D7309
:1036600005235373074B1C68E269EFF3108172B6B0
:103670001368002BFCD0BFF35F8F216203A9ACE776
:103680004C0B0020A40B002070B584B06B460600E4
:103690000C000A220021981DFEF78EFC012301ADCB
:1036A0006B700E4B2C711C682E70E269EFF3108367
:1036B00072B611680029FCD0BFF35F8F2362290026
:1036C000200000F069FCE269236ABFF35F8F0021EC
:1036D000116083F3108804B070BDC046A40B0020B5
:1036E000002330B585B001AD6B8028700633082209
:1036F00002A86B70FEF766FC0C4B1C68E269EFF3E6
:10370000108372B611680029FCD0BFF35F8F23626B
:103710002900200000F040FCE269236ABFF35F8FBC
:103720000021116083F3108805B030BDA40B002088
:10373000F0B5C64600B584B01D006B4680460F004C
:10374000160000210622981DFEF736FC434601AC08
:103750002370072363700F4B65711D682771A66086
:10376000EA69EFF3108372B611680029FCD0BFF349
:103770005F8F2B622100280000F00EFCEA692B6AA3
:10378000BFF35F8F0021116083F3108804B080BC09
:10379000B846F0BDA40B0020F8B54E46DE465746AD
:1037A0004546E0B51F000A9B83460C00161E99464D
:1037B00037D0702398461C4B00259A4617E0534695
:1037C0002000997800F078FA00281CD02100584693
:1037D000FEF70AFF002816D0A378DA09012A19D0CB
:1037E0004A46137023780135E418B54219DA637834
:1037F000052B08D1E3789B079B0FBB4203D14246C0
:10380000A3781A42DBD00020F0BCBB46B246A946E2
:10381000A046F8BD0B9A013513702378E418B54221
:10382000E5DB0120F0E7C0464C0B0020702270B5AC
:103830008B7805000C001A4201D0002070BD064BA9
:103840002000997800F038FA0028F6D021002800EE
:10385000FEF7CAFEF2E7C0464C0B002070B57F248D
:103860000E4D0C4064002C19CE09A4193034E578B3
:10387000ED0701D5002070BD0126E5783543E570E0
:10388000FEF75EFF0028F6D10122E3789343E37050
:10389000E37803329343E370ECE7C0464C0B00201F
:1038A0007F22054B0A405200C9099B185B18303330
:1038B000D878C007C00F70474C0B002070B5094C7A
:1038C0000600082220000D00FEF77CFB002380216B
:1038D000E360A3602B783000994300220023FFF7B8
:1038E000BDFF70BDB00A0020F8B5CE4647469046F1
:1038F000264E80B58146082230000D001F00FEF7DD
:1039000061FB4346B3600023F381EC79AB79240279
:103910001C43231CBC4200D93B1C9FB2B381002C2A
:103920000ED0002F18D04346002B2CD03B1C402F2C
:103930001BD89FB233787F2B1CD80021144A0FE08C
:1039400080212B780022994348460023FFF786FF09
:10395000C0BCB946B046F8BD7F23002231789943F8
:103960003B004846FFF77AFFF2E740239FB23378E7
:103970007F2BE2D9064C3A0041462000FEF722FB9D
:1039800080212200ECE70020E2E7C046B00A0020D8
:103990000C0B002010B5142200210248FEF70CFB8E
:1039A00010BDC046B00A0020014B18617047C046E8
:1039B000B00A002010B5054C010008222000FEF7D7
:1039C00001FB0023A360E36010BDC046B00A0020E5
:1039D00070B5394C1D0023780600DA09C9098A42FE
:1039E00013D00020002D00D070BD344B002B03D02D
:1039F00021003000FEF7EAFD2369002B03D02200EE
:103A00000221300098470120EEE7A0687F2B05D8FF
:103A1000002834D02A002A49FEF7D4FAE289A168A6
:103A20005219E38892B24919E281A160934214D0FD
:103A30003F2D12D9A389981A051C80B240282AD894
:103A40002078ADB27F2828D800219A4232D01C4A73
:103A50002B003000FFF702FFC6E72369002B05D0DB
:103A6000220001213000984700280AD080212378C5
:103A70000022994330000023FFF7F0FEB4E7002056
:103A8000B2E700213000FEF76DFE30008021FEF726
:103A900069FE0120A8E74025D2E79A4207D0084CEA
:103AA0002A002000FEF78EFA80212200D0E7802134
:103AB0000022CDE70022CBE7B00A0020CD25001080
:103AC0000C0B0020A62270B5144C82B000212000FF
:103AD0005200FEF771FA00252100012340223C31FB
:103AE000201D009500F03EF9260021002000012352
:103AF00040227C31BC360095203000F033F9300094
:103B0000FDF70EFEE6612600C4363000A561FDF724
:103B100007FE6663A56302B070BDC046680C002056
:103B200010B5054C0023200008C000F0EFFA20007B
:103B3000203000F0EBFA10BD680C0020F0B5CE4646
:103B4000474680B54B7906000D0083B0FF2B07D1A7
:103B50002E4F0C787978BB78002901D1002B05D045
:103B6000002003B0C0BCB946B046F0BDAB782C19FC
:103B70003B702879002826D06378052B08D0A2183E
:103B800004E0217864186178052901D09442F8D3C3
:103B90001F4B02009846019301330093210002233A
:103BA0003000FFF7F9FD0028DAD02B79994643461B
:103BB000597800290AD17978002910D14B464A4614
:103BC000DB009B1AE418601B80B2CAE74246402320
:103BD0003000CB32FFF742FE0028ECD1C0E70020D6
:103BE000FFF75EFE0028E9D13E0038000D36FF36B3
:103BF00040223100203000F04FF9031EDED03200A9
:103C000079780020FFF72AFED8E7C046680C00202C
:103C1000690C002070B5214CA2788A420BD06378E1
:103C200000208B4206D119000020FFF739FE002842
:103C300021D0012070BD21009AB2CC31201D00F0AE
:103C4000E7F9174B002B02D0002000E000BF002056
:103C5000A178FFF725FE0028EBD1201D00F0BCF86D
:103C60003F28E6D9220040230020A178CC32FFF77C
:103C7000F5FD0120DEE7250020000D35FF3540224F
:103C80002900203000F008F9031ED2D02A000020BD
:103C90006178FFF7E3FD0120CCE7C046680C002007
:103CA0000000000010B50020FEF778FF10BDC046F0
:103CB00010B5FEF76DFF10BD072210B544790379EA
:103CC000224012021A43C3789B079B0F022B05D098
:103CD000032B15D00020012B08D010BD02291ED0C7
:103CE0000020402393424041C0B2F6E702394B42E4
:103CF00059410E4B9C46614491424041C0B2ECE7B1
:103D000002394B1E99410A4B494219408023DB007E
:103D10009C460020614491424041C0B2DDE7054B22
:103D2000D01843425841C0B2D7E7C046FF03000055
:103D300040FCFFFF00FEFFFFF0B5002A11D0002479
:103D40007F274D78052D06D13D008E7835406D00DA
:103D5000F6094519AB550D782C19A4B24919A242A0
:103D6000EFD8F0BDF0B5C64600B5150006AA1E0096
:103D70001378802204000F0098461202954229D839
:103D80004069002803D00121494200F0C9FAA06926
:103D9000002803D00121494200F0C2FA4346A58021
:103DA0006D00ADB223726B1EA381002360696D426A
:103DB000E3812760E68065812382002801D000F03E
:103DC00097FAA069002801D000F092FA012080BC87
:103DD000B846F0BD0020FAE710B5C489018A83888F
:103DE000621A92B28C4202D24189521A92B2981A45
:103DF00080B210BD70B5040080690E00002803D0A9
:103E00000121494200F08CFAE089228A81B2851AA8
:103E100093B2ADB2904202D26289AD1AADB2A2881D
:103E2000AA422BD2914222D260891018091A89B273
:103E300021829A4203D89B1A9BB29A42FBD9E2880C
:103E4000216853433000C918FEF7BCF8228A0125C7
:103E5000531C9BB29A4215D962899B189BB2A069E8
:103E60002382002801D000F043FA280070BD891A8F
:103E7000A08989B2884209D315002182002DDCD1A6
:103E8000238A9BB2A2899A42E9D2E5E760891500AC
:103E9000091A89B22182F1E7F0B54F464646D64667
:103EA0000500806988469146C0B5002803D00121ED
:103EB000494200F035FAEA892B8A91B2D61A9CB2AF
:103EC000B6B29A4202D26B89F61AB6B2AF88B7423E
:103ED0003DD2B94232D23E006B89FB18CB1A9BB25D
:103EE0002B822C8AA4B24B46B1454BD89EB2A74236
:103EF00003D8E41BA4B2A742FBD9EA8829689146FB
:103F000062433B1B9BB289184A469E4235D95343B4
:103F10009BB21A0040469A46FEF754F84B4640467C
:103F2000F71BE4195C4329685044A2B2FEF74AF833
:103F30002A8A93199BB29A4210D80CE0C91BAB890C
:103F400089B28B4220D33E0029822C8AA4B2002E53
:103F5000C9D12B8A9BB2AA899A4202D26A899B183C
:103F60009BB2A8692B82002801D000F0C1F9300073
:103F7000E0BCBA46B146A846F0BD40467243FEF7E3
:103F800021F8D5E7331CB1E76B893E00C91A89B225
:103F900029822C8AA4B2DAE770B5040040690E00C9
:103FA000002803D00121494200F0BAF9E289218AB0
:103FB00095B2531A9BB2914202D962899B1A9BB265
:103FC000A2889A4220D02B00954203D39B1A9BB221
:103FD0009A42FBD9E288206853433100C018FDF7AC
:103FE000F1FF6B1C9BB29D420AD962899B189BB260
:103FF0006069E381002801D000F07AF9012070BDEA
:10400000A2899A42F4D2F0E7207A0028DBD1F6E7C1
:10401000F8B54E465746DE4645468946E0B50600A9
:10402000171E59D04069002803D00121494200F0F1
:1040300077F9F389327A9BB29846318AF388B5884A
:104040009A4689B2002A39D143465A1A92B2884513
:1040500002D27189521A92B2AA1A111C92B2BA42B1
:104060004ED88FB27A1B93B29B464446A84503D3E1
:10407000641BA4B2AC42FBD25346634330682D1B91
:10408000ADB2C018AF4229D8524649467A43FDF72F
:1040900099FF4346FB189BB2984519D8B2899A42BA
:1040A00016D37069F381002801D000F021F938009F
:1040B000F0BCBB46B246A946A046F8BDAF4221D3EC
:1040C0007F1B5F430023B94488462F009B46CCE703
:1040D00072899B189BB2E4E70027E8E753465D43EB
:1040E000ADB22A004946FDF76DFF22005346290074
:1040F0005A445A43306892B24944FDF763FFC8E717
:10410000391CAEE77A1B93B29B46AEE710B50400AC
:104110004069002803D00121494200F001F9A0695B
:10412000002803D00121494200F0FAF80023E3817E
:104130002382A38860695B009BB25A1E5B42A28106
:104140006381002801D000F0D3F8A069002801D0D5
:1041500000F0CEF8012010BD10B51920FCF7D0F901
:10416000D0238022E1211B0692045A620448054BA9
:104170000022186049020123FEF794F810BDC046E2
:10418000004003405C12002010B501000023002213
:10419000002000F043F810BD70B5074C074D641BBC
:1041A000A41005D0013CA300EB589847002CF9D18E
:1041B00000F09AF870BDC0467C0700207C07002004
:1041C00010B583070AD00300032102E001330B423C
:1041D00005D01A78002AF9D1181A10BD0300196801
:1041E0000C4A0D4C8A188A4322420FD15968094A59
:1041F00004338A188A43224208D15968054A043395
:104200008A188A432242F1D000E001331A78002A4A
:10421000FBD1E1E7FFFEFEFE80808080F0B5D64650
:104220004F4646469846264BC0B50600186891464C
:104230009A460F0000F054F8A422224B52001B684B
:104240009D58002D32D053466C6818681F2C32DC04
:10425000002E0CD1631C0234A4006B60675100F087
:1042600041F80020E0BCBA46B146A846F0BD494638
:104270008822A300EB189950C42149008C46AC4415
:104280006146873AA240096891461143624611602F
:104290008421424649005A50022EDBD129004A4669
:1042A0008D31FF310B6813430B60D3E71D004D3593
:1042B000FF359D50C7E700F015F801204042D1E7D7
:1042C0005807002070460010034B10B5002B02D099
:1042D0000248FFF759FF10BD00000000994100108F
:1042E0007047C0467047C046F8B5C04600000000A1
:1042F00001B40248844601BC604700BFE9010020C8
:1043000001B40248844601BC604700BF110200208E
:1043100001B40248844601BC604700BF0901002087
:1043200001B40248844601BC604700BF4901002037
:1043300001B40248844601BC604700BFC1000020B0
:1043400072616461725F6472697665725F786665D6
:10435000725F63620000000072616461725F647288
:10436000697665725F636F6E74726F6C5F78666595
:10437000725F63620000000072616461725F647268
:10438000697665725F6F70656E00000072616461CE
:10439000725F6472697665725F726573657400003E
:1043A00072616461725F6472697665725F696E6979
:1043B000740000007475645F76656E646F725F638D
:1043C0006F6E74726F6C5F786665725F6362000017
:1043D00072616461725F6472697665725F636F6E49
:1043E00074726F6C5F7265717565737400000000A4
:1043F00072616461725F6472697665725F636F6E29
:1044000074726F6C5F636F6D706C65746500000033
:104410007103001051030010150300100503001074
:10442000F50200100000000053636B7A6F7227736F
:1044300000000000322E346973682047487A205209
:1044400061646172000000003030303030300000B4
:104450000904000009022000010100A03209040043
:104460000002FF0000050705030240000007058366
:1044700002400000120101000000004009125559DD
:1044800000010102030100004E6F207370696E6C21
:104490006F636B732061726520617661696C616224
:1044A0006C650000486172647761726520616C61BF
:1044B000726D20256420616C726561647920636C83
:1044C00061696D65640000000A2A2A2A2050414E65
:1044D0004943202A2A2A0A000A000000486172641F
:1044E000206173736572740052656C656173650059
:1044F000626F6F74325F7732357130383000000090
:10450000312E342E300000007069636F000000000F
:1045100075736274657374004E6F76203236203284
:104520003032320006005250D3F07542E844001099
:1045300006005250E182887FF0440010060052507D
:10454000BBFF3CB6084500100D0A0000556E6861BF
:104550006E646C65642049525120307825780A00D9
:1045600065702025642025732077617320616C724B
:104570006561647920617661696C61626C650000D7
:1045800043616E277420636F6E74696E7565207861
:10459000666572206F6E20696E616374697665204E
:1045A0006570202564202573000000006F7574007D
:1045B000696E0000A82C00109C2E00103A2E0010EE
:1045C000F22D0010D42D0010BC2D0010482D00102D
:1045D000F62C0010EA2C0010803100106C31001015
:1045E000AA2D0010FE310010AA2D0010E631001097
:1045F000D2310010AA2D0010BE31001094310010ED
:10460000AA2D0010FC3400100E320010F0340010FF
:10461000AA2D0010AA2D0010D23400100E32001066
:10462000AA2D0010AA2D0010AA2D0010AA2D0010EE
:10463000AA2D0010AA2D0010AA2D0010C2340010BF
:10464000C53A0010213B00103D3B0010A1030010B3
:10465000153C0010000000004C4544000900525079
:1046600000000002584600100800525012000000DE
:0446700030030020F3
:104674002445001030450010900200103C45001005
:104684009C020010A8020010B4020010684600103A
:044694005C46001070
:10469800D02330B500251B0600245D5706E00368CB
:1046A800BFF35F8F1C6081F3108820BF0268EFF3AF
:1046B800108172B61368002BFCD0BFF35F8F0379AB
:1046C8007F2BECD905710368BFF35F8F00221A6056
:1046D80081F3108830BDC04603000068EFF3108CEA
:1046E80072B60268002AFCD0BFF35F8F04229A5684
:1046F800002A04DB002900D00A60002004E0D02250
:104708000120120612681A711B68BFF35F8F00221E
:104718001A608CF310887047F0B5C64600B582B0B1
:104728000C00070000F068F8FA22002300900191BD
:1047380020009200002100F067F8009A019B140005
:104748001D0024184D41AB422FD82BD0D0231B0677
:104758001B68002698460BE03B68BFF35F8F1E601E
:1047680081F310882000290000F03EF8002820D1AD
:104778003A68EFF3108172B61368002BFCD0BFF3D0
:104788005F8F3B797F2BE7D943463B713B68BFF38B
:104798005F8F00221A6081F31088012002B080BC6C
:1047A800B846F0BD009BA342D0D901246442E51766
:1047B800CCE70020F2E7C0460268EFF3108172B63A
:1047C8001368002BFCD0BFF35F8FFF2303710368CE
:1047D800BFF35F8F00221A6081F3108840BF7047D3
:1047E8007047C0460000000001B40248844601BC7E
:1047F800604700BFF50F001001B40248844601BCB1
:10480800604700BF7511001001B40248844601BC1E
:10481800604700BFE51E00105044001028440010F7
:10482800344400104844001010000000000000004C
:10483800000001000000000000000000000002006D
:10484800000000000000000000000300000000005D
:10485800000000000000FF000000000000B54868EC
:1048680001318E460047704609380149884700BD26
:10487800D9080010BC02002000000000A807002092
:10488800C80D00200000000000000000D80D002026
:104898000000000000000000100000000000000000
:1048A800503300004C3300005433000052330000F2
:1048B8004D5300004D4300005334000043340000C2
:1048C80021220010000000006D22001000000000EE
:1048D80000010000AC450010B0450010A80B0020F6
:1048E80010000C000000E0FF1F00000000000000A6
:1048F80000000000000000000000000000000000B0
:10490800000000001C06002084060020EC060020A1
:10491800000000000000000000000000000000008F
:10492800000000000000000000000000000000007F
:10493800000000000000000000000000000000006F
:10494800000000000000000000000000000000005F
:10495800000000000000000000000000000000004F
:10496800000000000000000000000000000000003F
:10497800000000000000000000000000000000002F
:10498800000000000000000000000000000000001F
:10499800000000000000000000000000000000000F
:1049A80000000000000000000100000000000000FE
:1049B8000E33CDAB34126DE6ECDE05000B000000C3
:1049C80000000000000000000000000000000000DF
:1049D80000000000000000000000000000000000CF
:1049E80000000000000000000000000000000000BF
:1049F80000000000000000000000000000000000AF
:104D28000000000000000000A80A002000000000A9
:104D380000000000A91F0010611D0010211E0010B6
:0C4D4800191F0010C9420010C502001025
:04000005100001E9FD
:00000001FF
